:100000000C9472000C9493000C9493000C94930045
:100010000C9493000C94B80E0C948D0E0C949300D9
:100020000C9493000C9493000C9493000C94930004
:100030000C9493000C9493000C9493000C949300F4
:100040000C9493000C9493000C9493000C949300E4
:100050000C9493000C9493000C9493000C949300D4
:100060000C9493000C9493000C9493000C949300C4
:100070000C9493000C9493000C9493000C949300B4
:100080000C9493000C9493000C9493000C949300A4
:100090000C9493000C9493000C9493000C94930094
:1000A0000C9493000C9493000C9493000C94930084
:1000B0000C9493000C9493000C9493000C94930074
:1000C0000C9493000C9493000C9493000C943119AD
:1000D0000C9493000C9493000C9493000C94930054
:1000E0000C94930011241FBECFEFD1E2DEBFCDBF31
:1000F00000E00CBF14E0A0E0B2E0EEE8F3ED00E0B9
:100100000BBF02C007900D92A437B107D9F714E0D6
:10011000A4E7B4E001C01D92AB3EB107E1F70E9435
:100120006A1E0C94C5690C9400000F931F93CF9323
:10013000DF93CDB7DEB7C057D0400FB6F894DEBF1F
:100140000FBECDBF80E090E0A0E8BFE389839A8333
:10015000AB83BC8369817A818B819C8126E636E6FC
:1001600046E655E40E944E69DC01CB018D839E83F7
:10017000AF83B88711E06D817E818F81988520E003
:1001800030E040E85FE30E94006888230CF010E054
:10019000112329F081E090E09A87898746C011E019
:1001A0006D817E818F81988520E03FEF4FE757E496
:1001B0000E944A6918160CF010E0112361F1698160
:1001C0007A818B819C8120E030E040E251E40E9402
:1001D0004E69DC01CB01BC01CD010E946C68DC01E1
:1001E000CB019A87898712C080E791E09C878B8733
:1001F0008B859C858C01C8010197F1F78C011C87C8
:100200000B8789859A8501979A87898789859A8539
:10021000009751F717C06D817E818F8198850E946C
:100220006C68DC01CB019A87898789859A859E87CE
:100230008D878D859E858C01F8013197F1F78F01AF
:100240001E870D8788E290E028E230E0F9012081E6
:100250002E7FFC01208388E290E028E230E0F90163
:1002600020812D7FFC01208388E290E020E3FC01C7
:10027000208388E290E028E230E0F90120812460C8
:10028000FC01208380E090E0A0EAB0E48F87988BA7
:10029000A98BBA8B6F85788989899A8926E636E693
:1002A00046E655E40E944E69DC01CB018B8B9C8BAA
:1002B000AD8BBE8B11E06B897C898D899E8920E096
:1002C00030E040E85FE30E94006888230CF010E013
:1002D000112329F081E090E0988F8F8B46C011E0C8
:1002E0006B897C898D899E8920E03FEF4FE757E439
:1002F0000E944A6918160CF010E0112361F16F8515
:10030000788989899A8920E030E040E251E40E94AE
:100310004E69DC01CB01BC01CD010E946C68DC019F
:10032000CB01988F8F8B12C080E791E09A8F898FD5
:10033000898D9A8D8C01C8010197F1F78C011A8F74
:10034000098F8F89988D0197988F8F8B8F89988DC2
:10035000009751F717C06B897C898D899E890E940F
:100360006C68DC01CB01988F8F8B8F89988D9C8F67
:100370008B8F8B8D9C8D8C01F8013197F1F78F015C
:100380001C8F0B8F88E290E028E230E0F901208199
:100390002B7FFC01208380E090E0A0E8BFE38D8FFD
:1003A0009E8FAF8FB8A36D8D7E8D8F8D98A126E621
:1003B00036E646E655E40E944E69DC01CB0189A38E
:1003C0009AA3ABA3BCA311E069A17AA18BA19CA1C4
:1003D00020E030E040E85FE30E94006888230CF0F2
:1003E00010E0112329F081E090E09EA38DA346C088
:1003F00011E069A17AA18BA19CA120E03FEF4FE71A
:1004000057E40E944A6918160CF010E0112361F1BC
:100410006D8D7E8D8F8D98A120E030E040E251E41B
:100420000E944E69DC01CB01BC01CD010E946C68C9
:10043000DC01CB019EA38DA312C080E791E098A7B9
:100440008FA38FA198A58C01C8010197F1F78C01AA
:1004500018A70FA38DA19EA101979EA38DA38DA187
:100460009EA1009751F717C069A17AA18BA19CA109
:100470000E946C68DC01CB019EA38DA38DA19EA17F
:100480009AA789A789A59AA58C01F8013197F1F758
:100490008F011AA709A788E290E028E230E0F9016D
:1004A00020812E7FFC01208388E290E028E230E06A
:1004B000F90120812D7FFC01208388E290E020E378
:1004C000FC01208388E290E028E230E0F9012081FD
:1004D0002460FC01208380E090E0A0EAB0E48BA7D8
:1004E0009CA7ADA7BEA76BA57CA58DA59EA526E65E
:1004F00036E646E655E40E944E69DC01CB018FA743
:1005000098ABA9ABBAAB11E06FA578A989A99AA954
:1005100020E030E040E85FE30E94006888230CF0B0
:1005200010E0112329F081E090E09CAB8BAB46C03A
:1005300011E06FA578A989A99AA920E03FEF4FE7BC
:1005400057E40E944A6918160CF010E0112361F17B
:100550006BA57CA58DA59EA520E030E040E251E48E
:100560000E944E69DC01CB01BC01CD010E946C6888
:10057000DC01CB019CAB8BAB12C080E791E09EAB62
:100580008DAB8DA99EA98C01C8010197F1F78C0153
:100590001EAB0DAB8BA99CA901979CAB8BAB8BA918
:1005A0009CA9009751F717C06FA578A989A99AA9A6
:1005B0000E946C68DC01CB019CAB8BAB8BA99CA926
:1005C00098AF8FAB8FA998AD8C01F8013197F1F7F7
:1005D0008F0118AF0FAB88E290E028E230E0F9011C
:1005E00020812B7FFC01208380E090E0A0E8BFE326
:1005F00089AF9AAFABAFBCAF69AD7AAD8BAD9CADF7
:1006000026E636E646E655E40E944E69DC01CB015B
:100610009E01235C3F4FF90180839183A283B383C2
:1006200011E0CE01CD96FC016081718182819381C0
:1006300020E030E040E85FE30E94006888230CF08F
:1006400010E0112349F0CE018F5B9F4F21E030E095
:10065000FC01318320836EC011E0CE01CD96FC01F8
:10066000608171818281938120E03FEF4FE757E401
:100670000E944A6918160CF010E0112309F449C0D1
:1006800069AD7AAD8BAD9CAD20E030E040E251E445
:100690000E944E69DC01CB018E010F5B1F4FBC0134
:1006A000CD010E946C68DC01CB01F801918380834D
:1006B00027C0CE018D5B9F4F20E731E0FC013183E5
:1006C0002083CE018D5B9F4FFC01808191818C0145
:1006D000C8010197F1F78C01CE018D5B9F4FFC01A2
:1006E00011830083CE018F5B9F4F9E012F5B3F4F95
:1006F000F9012081318121503040FC013183208378
:10070000CE018F5B9F4FFC0180819181009789F61C
:100710002EC08E010F5B1F4FCE01CD96FC01608174
:100720007181828193810E946C68DC01CB01F801A8
:1007300091838083CE018B5B9F4F9E012F5B3F4F48
:10074000F90120813181FC0131832083CE018B5B53
:100750009F4FFC01808191818C01C8010197F1F7C5
:100760008C01CE018B5B9F4FFC011183008388E2DB
:1007700090E028E230E0F90120812E7FFC01208307
:1007800088E290E028E230E0F90120812D7FFC0131
:10079000208388E290E020E3FC01208388E290E05F
:1007A00028E230E0F90120812460FC0120839E01D1
:1007B000295B3F4F80E090E0A0EAB0E4F90180833C
:1007C0009183A283B3838E01055B1F4FCE01895BAA
:1007D0009F4FFC01608171818281938126E636E61C
:1007E00046E655E40E944E69DC01CB01F8018083A6
:1007F0009183A283B383CE01855B9F4F11E0FC01FF
:10080000608171818281938120E030E040E85FE384
:100810000E94006888230CF010E0112349F0CE01FB
:10082000815B9F4F21E030E0FC013183208374C065
:10083000CE01855B9F4F11E0FC0160817181828157
:10084000938120E03FEF4FE757E40E944A69181672
:100850000CF010E0112309F44DC0CE01895B9F4FCD
:10086000FC01608171818281938120E030E040E26F
:1008700051E40E944E69DC01CB018E01015B1F4FE8
:10088000BC01CD010E946C68DC01CB01F8019183B1
:10089000808327C0CE018F5A9F4F20E731E0FC01B3
:1008A00031832083CE018F5A9F4FFC01808191813B
:1008B0008C01C8010197F1F78C01CE018F5A9F4F2F
:1008C000FC0111830083CE01815B9F4F9E01215B60
:1008D0003F4FF9012081318121503040FC013183AB
:1008E0002083CE01815B9F4FFC0180819181009725
:1008F00089F62FC08E01015B1F4FCE01855B9F4F94
:10090000FC0160817181828193810E946C68DC01AD
:10091000CB01F80191838083CE018D5A9F4F9E01B8
:10092000215B3F4FF90120813181FC01318320831C
:10093000CE018D5A9F4FFC01808191818C01C801AD
:100940000197F1F78C01CE018D5A9F4FFC01118365
:10095000008388E290E028E230E0F90120812B7FDB
:10096000FC0120839E012B5A3F4F80E090E0A0E8DD
:10097000BFE3F90180839183A283B3838E01075A79
:100980001F4FCE018B5A9F4FFC0160817181828184
:10099000938126E636E646E655E40E944E69DC0180
:1009A000CB01F80180839183A283B383CE01875A60
:1009B0009F4F11E0FC01608171818281938120E071
:1009C00030E040E85FE30E94006888230CF010E00C
:1009D000112349F0CE01835A9F4F21E030E0FC0102
:1009E0003183208374C0CE01875A9F4F11E0FC01F0
:1009F000608171818281938120E03FEF4FE757E46E
:100A00000E944A6918160CF010E0112309F44DC039
:100A1000CE018B5A9F4FFC0160817181828193814D
:100A200020E030E040E251E40E944E69DC01CB015D
:100A30008E01035A1F4FBC01CD010E946C68DC017E
:100A4000CB01F8019183808327C0CE01815A9F4F4B
:100A500020E731E0FC0131832083CE01815A9F4F92
:100A6000FC01808191818C01C8010197F1F78C0113
:100A7000CE01815A9F4FFC0111830083CE01835A1E
:100A80009F4F9E01235A3F4FF90120813181215010
:100A90003040FC0131832083CE01835A9F4FFC01FB
:100AA00080819181009789F62FC08E01035A1F4FD4
:100AB000CE01875A9F4FFC016081718182819381B1
:100AC0000E946C68DC01CB01F80191838083CE0128
:100AD0008F599F4F9E01235A3F4FF9012081318149
:100AE000FC0131832083CE018F599F4FFC0180810F
:100AF00091818C01C8010197F1F78C01CE018F59CA
:100B00009F4FFC011183008388E290E028E230E0EF
:100B1000F90120812E7FFC01208388E290E028E209
:100B200030E0F90120812D7FFC01208388E290E0F4
:100B300020E2FC01208388E290E028E230E0F90125
:100B400020812460FC0120839E012D593F4F80E0CD
:100B500090E0A0EAB0E4F90180839183A283B3839B
:100B60008E0109591F4FCE018D599F4FFC016081A5
:100B700071818281938126E636E646E655E40E943D
:100B80004E69DC01CB01F80180839183A283B3839A
:100B9000CE0189599F4F11E0FC01608171818281F2
:100BA000938120E030E040E85FE30E940068882302
:100BB0000CF010E0112349F0CE0185599F4F21E040
:100BC00030E0FC013183208374C0CE0189599F4FEE
:100BD00011E0FC01608171818281938120E03FEF0F
:100BE0004FE757E40E944A6918160CF010E01123F1
:100BF00009F44DC0CE018D599F4FFC016081718178
:100C00008281938120E030E040E251E40E944E690D
:100C1000DC01CB018E0105591F4FBC01CD010E94A3
:100C20006C68DC01CB01F8019183808327C0CE0181
:100C300083599F4F20E731E0FC0131832083CE01AF
:100C400083599F4FFC01808191818C01C8010197DC
:100C5000F1F78C01CE0183599F4FFC011183008372
:100C6000CE0185599F4F9E0125593F4FF9012081A3
:100C7000318121503040FC0131832083CE018559E0
:100C80009F4FFC0180819181009789F62FC08E01D2
:100C900005591F4FCE0189599F4FFC016081718119
:100CA000828193810E946C68DC01CB01F801918301
:100CB0008083CE0181599F4F9E0125593F4FF901F5
:100CC00020813181FC0131832083CE0181599F4FE6
:100CD000FC01808191818C01C8010197F1F78C01A1
:100CE000CE0181599F4FFC011183008388E290E07F
:100CF00028E230E0F90120812B7FFC012083C059DC
:100D0000DF4F0FB6F894DEBF0FBECDBFDF91CF919E
:100D10001F910F9108950F931F93CF93DF93CDB73A
:100D2000DEB72E970FB6F894DEBF0FBECDBF0E9480
:100D3000950080E090E0A0E8BFE389839A83AB83CD
:100D4000BC8369817A818B819C8126E636E646E602
:100D500055E40E944E69DC01CB018D839E83AF83F5
:100D6000B88711E06D817E818F81988520E030E029
:100D700040E85FE30E94006888230CF010E0112334
:100D800029F081E090E09A87898746C011E06D8163
:100D90007E818F81988520E03FEF4FE757E40E94E6
:100DA0004A6918160CF010E0112361F169817A810B
:100DB0008B819C8120E030E040E251E40E944E694A
:100DC000DC01CB01BC01CD010E946C68DC01CB01D0
:100DD0009A87898712C080E791E09C878B878B85F3
:100DE0009C858C01C8010197F1F78C011C870B874A
:100DF00089859A8501979A87898789859A85009739
:100E000051F717C06D817E818F8198850E946C6833
:100E1000DC01CB019A87898789859A859E878D8792
:100E20008D859E858C01C8010197F1F78C011E8785
:100E30000D8788E20E94330781E00E94330786E035
:100E40000E9433078EE00E94330780E80E94330738
:100E50002E960FB6F894DEBF0FBECDBFDF91CF91B7
:100E60001F910F9108950F931F93CF93DF93CDB7E9
:100E7000DEB76E970FB6F894DEBF0FBECDBF8E8F74
:100E80008E8D89838981807F898388E290E028E242
:100E900030E0F90120812F70FC01208388E290E08E
:100EA00028E230E0F90130812981232BFC012083E5
:100EB00088E290E028E230E0F90120812E7FFC01F9
:100EC000208388E290E028E230E0F90120812D7F44
:100ED000FC01208388E290E028E230E0F9012081E3
:100EE0002460FC01208380E090E0A0EAB0E48A83E3
:100EF0009B83AC83BD836A817B818C819D8126E647
:100F000036E646E655E40E944E69DC01CB018E834D
:100F10009F83A887B98711E06E817F818885998535
:100F200020E030E040E85FE30E94006888230CF096
:100F300010E0112329F081E090E09B878A8746C06A
:100F400011E06E817F818885998520E03FEF4FE732
:100F500057E40E944A6918160CF010E0112361F161
:100F60006A817B818C819D8120E030E040E251E408
:100F70000E944E69DC01CB01BC01CD010E946C686E
:100F8000DC01CB019B878A8712C080E791E09D87B7
:100F90008C878C859D858C01C8010197F1F78C01A8
:100FA0001D870C878A859B8501979B878A878A8501
:100FB0009B85009751F717C06E817F818885998541
:100FC0000E946C68DC01CB019B878A878A859B85A0
:100FD0009F878E878E859F858C01F8013197F1F769
:100FE0008F011F870E8788E290E028E230E0F90148
:100FF00020812B7FFC0120838E8D8F708E8F8E8DB4
:101000008295807F8E8F88E290E028E230E0F901BF
:1010100020812F70FC01208388E290E028E230E0FC
:10102000F90130812E8D232BFC01208388E290E092
:1010300028E230E0F90120812E7FFC01208388E244
:1010400090E028E230E0F90120812D7FFC0120832F
:1010500088E290E028E230E0F90120812460FC0180
:10106000208380E090E0A0EAB0E4888B998BAA8B83
:10107000BB8B688979898A899B8926E636E646E6AC
:1010800055E40E944E69DC01CB018C8B9D8BAE8BAD
:10109000BF8B11E06C897D898E899F8920E030E0CB
:1010A00040E85FE30E94006888230CF010E0112301
:1010B00029F081E090E0998F888F46C011E06C891B
:1010C0007D898E899F8920E03FEF4FE757E40E949A
:1010D0004A6918160CF010E0112361F168897989CA
:1010E0008A899B8920E030E040E251E40E944E6909
:1010F000DC01CB01BC01CD010E946C68DC01CB019D
:10110000998F888F12C080E791E09B8F8A8F8A8D9C
:101110009B8D8C01C8010197F1F78C011B8F0A8F01
:10112000888D998D0197998F888F888D998D0097DB
:1011300051F717C06C897D898E899F890E946C68E0
:10114000DC01CB01998F888F888D998D9D8F8C8F35
:101150008C8D9D8D8C01F8013197F1F78F011D8FDA
:101160000C8F88E290E028E230E0F90120812B7FAB
:10117000FC0120836E960FB6F894DEBF0FBECDBF84
:10118000DF91CF911F910F9108950F931F93CF93EC
:10119000DF93CDB7DEB76E970FB6F894DEBF0FBE04
:1011A000CDBF8E8F8E8D89838981807F898388E2F0
:1011B00090E028E230E0F90120812F70FC012083CB
:1011C00088E290E028E230E0F90130812981232B88
:1011D000FC01208388E290E028E230E0F9012081E0
:1011E0002160FC01208388E290E028E230E0F901F0
:1011F00020812D7FFC01208388E290E028E230E00E
:10120000F90120812460FC01208380E090E0A0EAC5
:10121000B0E48A839B83AC83BD836A817B818C81AC
:101220009D8126E636E646E655E40E944E69DC01DD
:10123000CB018E839F83A887B98711E06E817F8160
:101240008885998520E030E040E85FE30E940068EF
:1012500088230CF010E0112329F081E090E09B87B7
:101260008A8746C011E06E817F818885998520E05C
:101270003FEF4FE757E40E944A6918160CF010E060
:10128000112361F16A817B818C819D8120E030E0B6
:1012900040E251E40E944E69DC01CB01BC01CD016A
:1012A0000E946C68DC01CB019B878A8712C080E7B3
:1012B00091E09D878C878C859D858C01C801019765
:1012C000F1F78C011D870C878A859B8501979B8789
:1012D0008A878A859B85009751F717C06E817F8129
:1012E000888599850E946C68DC01CB019B878A8781
:1012F0008A859B859F878E878E859F858C01F801C7
:101300003197F1F78F011F870E8788E290E028E27E
:1013100030E0F90120812B7FFC0120838E8D8F70BE
:101320008E8F8E8D8295807F8E8F88E290E028E26E
:1013300030E0F90120812F70FC01208388E290E0E9
:1013400028E230E0F90130812E8D232BFC0120832F
:1013500088E290E028E230E0F90120812160FC0180
:10136000208388E290E028E230E0F90120812D7F9F
:10137000FC01208388E290E028E230E0F90120813E
:101380002460FC01208380E090E0A0EAB0E4888B38
:10139000998BAA8BBB8B688979898A899B8926E678
:1013A00036E646E655E40E944E69DC01CB018C8BA3
:1013B0009D8BAE8BBF8B11E06C897D898E899F8957
:1013C00020E030E040E85FE30E94006888230CF0F2
:1013D00010E0112329F081E090E0998F888F46C0BA
:1013E00011E06C897D898E899F8920E03FEF4FE76E
:1013F00057E40E944A6918160CF010E0112361F1BD
:10140000688979898A899B8920E030E040E251E44B
:101410000E944E69DC01CB01BC01CD010E946C68C9
:10142000DC01CB01998F888F12C080E791E09B8F00
:101430008A8F8A8D9B8D8C01C8010197F1F78C01F1
:101440001B8F0A8F888D998D0197998F888F888D32
:10145000998D009751F717C06C897D898E899F8976
:101460000E946C68DC01CB01998F888F888D998DE3
:101470009D8F8C8F8C8D9D8D8C01F8013197F1F7AC
:101480008F011D8F0C8F88E290E028E230E0F90197
:1014900020812B7FFC0120836E960FB6F894DEBF6F
:1014A0000FBECDBFDF91CF911F910F910895CF93C4
:1014B000DF93CDB7DEB780E80E943307DF91CF918D
:1014C0000895CF93DF930F920F92CDB7DEB79A8333
:1014D00089830BC089819A81FC0180810E94C508A3
:1014E00089819A8101969A83898389819A81FC01F5
:1014F0008081882379F70F900F90DF91CF91089525
:10150000CF93DF930F920F92CDB7DEB789836A83B3
:101510008981882F90E08230910599F08330910580
:1015200024F48130910541F01BC08330910571F0A6
:101530008430910581F014C08A8181580E9433075C
:1015400010C08A8181540E9433070BC08A818D5656
:101550000E94330706C08A818D520E94330701C062
:1015600000000F900F90DF91CF910895CF93DF93FC
:10157000CDB7DEB727970FB6F894DEBF0FBECDBF4D
:101580008A836B835D834C833F832E8319828A8198
:10159000882319F08B81882319F40E94570A04C00C
:1015A0008A816B810E94800A8E819F81853091059E
:1015B00019F089818130B1F48C819D8120E137E27D
:1015C000B9010E94B1699B01C901C09690938A0438
:1015D000809389048091890490918A040E94C508AF
:1015E00081E089838E819F818430910519F0898102
:1015F000813019F58C819D8128EE33E0B9010E947C
:10160000B1699B01C90190938C0480938B048091F4
:101610008B0490918C042AE030E0B9010E94B169FA
:10162000C0969093D2048093D1048091D10490917C
:10163000D2040E94C50881E089838E819F81833016
:10164000910519F08981813019F58C819D8124E6FD
:1016500030E0B9010E94B1699B01C90190938C04EB
:1016600080938B0480918B0490918C042AE030E06D
:10167000B9010E94B169C0969093CE048093CD04C5
:101680008091CD049091CE040E94C50881E08983A9
:101690008E819F818230910519F08981813019F501
:1016A0008C819D812AE030E0B9010E94B1699B01E3
:1016B000C90190938C0480938B0480918B0490914A
:1016C0008C042AE030E0B9010E94B169C096909381
:1016D000AB048093AA048091AA049091AB040E9469
:1016E000C50881E089838E819F818130910519F041
:1016F0008981813091F48C819D812AE030E0B901AB
:101700000E94B169C0969093D0048093CF048091D9
:10171000CF049091D0040E94C5088E819F818630AD
:1017200091051CF085E40E94C50827960FB6F89431
:10173000DEBF0FBECDBFDF91CF910895CF93DF9372
:10174000CDB7DEB787E290E027E230E0F9012081F3
:10175000276FFC01208388E290E028E230E0F90165
:1017600020812078FC012083DF91CF910895CF93D1
:10177000DF93CDB7DEB780E390E0FC01108281E318
:1017800090E0FC01108287E091E0FC01108288E08B
:1017900091E0FC011082DF91CF910895CF93DF9308
:1017A000CDB7DEB787E290E027E230E0F901208193
:1017B0002860FC01208388E290E028E230E0F90113
:1017C0002081277FFC012083DF91CF910895CF9363
:1017D000DF93CDB7DEB78DE290E02DE230E0F90186
:1017E00020812F7EFC0120838EE290E02EE230E00B
:1017F000F90120812061FC012083DF91CF910895C0
:10180000CF93DF93CDB7DEB78DE290E02DE230E0ED
:10181000F90120812F7DFC0120838EE290E02EE2F1
:1018200030E0F90120812062FC012083DF91CF911B
:101830000895CF93DF93CDB7DEB781E290E021E248
:1018400030E0F90120812F60FC01208382E290E0EA
:1018500022E230E0F9012081207FFC0120838AE030
:1018600091E02AE031E0F90120812861FC01208328
:101870008BE091E02BE031E0F90120812861FC014F
:101880002083DF91CF9108950F931F93CF93DF9320
:1018900000D00F920F92CDB7DEB78D8380E090E03D
:1018A000DC0189839A83AB83BC838D81882F90E090
:1018B000A0E0B0E0BC01CD010E949868DC01CB0142
:1018C000BC01CD012BE734E14EEE5FE30E940468DA
:1018D000DC01CB01BC01CD0120E030E04CE052E462
:1018E0000E949C67DC01CB0189839A83AB83BC8314
:1018F00089E890E0FC01108208E810E069817A81B3
:101900008B819C810E946C68DC01CB01F801808393
:101910000F900F900F900F900F90DF91CF911F912C
:101920000F9108950F931F93CF93DF9300D00F92E1
:101930000F92CDB7DEB78D8380E090E0DC01898324
:101940009A83AB83BC838D81882F90E0A0E0B0E0C8
:10195000BC01CD010E949868DC01CB01BC01CD0126
:101960002BE734E14EEE5FE30E940468DC01CB011B
:10197000BC01CD0120E030E04CE052E40E949C67C5
:10198000DC01CB0189839A83AB83BC838BE890E035
:10199000FC0110820AE810E069817A818B819C81C8
:1019A0000E946C68DC01CB01F80180830F900F90DE
:1019B0000F900F900F90DF91CF911F910F9108958D
:1019C000CF93DF93CDB7DEB70E949E0B0E94B70B7B
:1019D0000E94190C0E94CE0B0E94E70B0E94000C83
:1019E0008BEB98E1FC01199584ED98E1FC011995C8
:1019F000DF91CF910895CF93DF93CDB7DEB781E22A
:101A000091E0FC01108285E291E02FEFFC01208340
:101A100084E291E021E0FC01208389E291E0FC0175
:101A2000108288E291E02FEFFC0120838BE291E0AD
:101A3000FC0110828AE291E02FEFFC0120838DE20D
:101A400091E0FC0110828CE291E02FEFFC012083F9
:101A500080E291E029EAFC01208381E291E02BE021
:101A6000FC012083DF91CF910895CF93DF93CDB711
:101A7000DEB78AE790E0FC0110828BE790E0FC0182
:101A800010828CE790E020E2FC01208380E590E06A
:101A900020E8FC0120838AE790E026E8FC0120830F
:101AA000DF91CF910895CF93DF930F920F92CDB72F
:101AB000DEB78A838A81883028F08BE790E028E0BF
:101AC000FC0120838A8187708A838CE790E02A81D9
:101AD0002062FC0120838AE790E02AE730E0F901E8
:101AE00020812064FC01208300008AE790E0FC0153
:101AF0008081882F90E0807190700097B1F389E722
:101B000090E0FC01808189838AE790E02AE730E059
:101B1000F90120812061FC0120838BE790E0FC012A
:101B2000108289810F900F90DF91CF910895CF930C
:101B3000DF930F92CDB7DEB7198286E290E0FC0109
:101B40008081898389818860898388E290E0298106
:101B5000FC0120830F90DF91CF910895CF93DF9305
:101B60000F92CDB7DEB7198286E290E0FC0180814A
:101B700089838981877F898388E290E02981FC01BC
:101B800020830F90DF91CF910895CF93DF9300D002
:101B9000CDB7DEB789836A834B838B810E94530D57
:101BA0008093A5048091A504282F30E089816A8163
:101BB000A90123E030E00E94B60A0F900F900F9029
:101BC000DF91CF910895CF93DF930F920F92CDB70E
:101BD000DEB789836A8388E291E02981FC01208352
:101BE0008AE291E02A81FC0120830F900F90DF911F
:101BF000CF910895CF93DF930F920F92CDB7DEB7B9
:101C00008A8319828A818F708A8382E290E0FC0144
:101C1000808189838981807F898399818A81892BC9
:101C2000898382E290E02981FC0120830F900F904C
:101C3000DF91CF910895CF93DF93CDB7DEB786E0E4
:101C40000E94FA0DDF91CF910895CF93DF93CDB726
:101C5000DEB789E00E94FA0DDF91CF910895CF930E
:101C6000DF93CDB7DEB782E00E94FA0DDF91CF910E
:101C70000895CF93DF93CDB7DEB78AE00E94FA0DC7
:101C8000DF91CF910895CF93DF93CDB7DEB785E095
:101C90000E94FA0DDF91CF910895CF93DF93CDB7D6
:101CA000DEB780E00E94FA0DDF91CF910895CF93C7
:101CB000DF93CDB7DEB7F8948AE690E02AE630E00D
:101CC000F90120812260FC0120838DE390E02DE367
:101CD00030E0F90120812061FC0120837894DF91BC
:101CE000CF910895CF93DF93CDB7DEB7F8948AE60E
:101CF00090E02AE630E0F90120812860FC01208391
:101D00008DE390E02DE330E0F90120812062FC01B9
:101D100020837894DF91CF9108951F920F920FB690
:101D20000F9211248F939F93AF93BF93CF93DF9321
:101D3000CDB7DEB78091780490917904A0917A04B0
:101D4000B0917B040196A11DB11D809378049093FE
:101D50007904A0937A04B0937B04DF91CF91BF9173
:101D6000AF919F918F910F900FBE0F901F9018957C
:101D70001F920F920FB60F9211248F939F93AF93E0
:101D8000BF93CF93DF93CDB7DEB78091740490916A
:101D90007504A0917604B09177040196A11DB11D40
:101DA0008093740490937504A0937604B0937704A1
:101DB000DF91CF91BF91AF919F918F910F900FBE07
:101DC0000F901F901895CF93DF93CDB7DEB72A976A
:101DD0000FB6F894DEBF0FBECDBF9A87898780E02B
:101DE00090E0DC0189839A83AB83BC831D821E82D1
:101DF0001F82188689859A85CC01A0E0B0E0BC01DD
:101E0000CD010E949868DC01CB01BC01CD0128E422
:101E100031EE42E850E40E940468DC01CB01898382
:101E20009A83AB83BC8369817A818B819C810E9478
:101E30006C68DC01CB01CC01A0E0B0E08D839E8317
:101E4000AF83B887109278041092790410927A04C4
:101E500010927B0410927404109275041092760410
:101E60001092770401C00000209178043091790429
:101E700040917A0450917B0471E08D819E81AF8105
:101E8000B885281739074A075B0708F470E02091E6
:101E9000740430917504409176045091770461E0A8
:101EA0008D819E81AF81B885281739074A075B0766
:101EB00008F460E0872F862B8823A9F200000E9497
:101EC0004D0E2A960FB6F894DEBF0FBECDBFDF9140
:101ED000CF910895CF93DF930F920F92CDB7DEB7D6
:101EE0009A8389830E94430E89819A810E94E30E1E
:101EF0000F900F90DF91CF910895CF93DF930F92C2
:101F00000F92CDB7DEB79A8389830E94390E8981FB
:101F10009A810E94E30E0F900F90DF91CF91089568
:101F2000CF93DF93CDB7DEB72A970FB6F894DEBF15
:101F30000FBECDBF9A87898780E090E0DC0189835E
:101F40009A83AB83BC831D821E821F82188689857B
:101F50009A85CC01A0E0B0E0BC01CD010E94986858
:101F6000DC01CB01BC01CD0125EE30ED4AEA50E4A5
:101F70000E940468DC01CB0189839A83AB83BC8314
:101F800069817A818B819C810E946C68DC01CB0124
:101F90008D839E83AF83B887109278041092790462
:101FA00010927A0410927B0401C000002091780402
:101FB0003091790440917A0450917B048D819E8107
:101FC000AF81B88582179307A407B50770F70000A3
:101FD0000E944D0E2A960FB6F894DEBF0FBECDBFFD
:101FE000DF91CF910895CF93DF930F920F92CDB7EA
:101FF000DEB79A8389830E941B0E89819A810E9491
:10200000900F0F900F90DF91CF910895CF93DF93B2
:102010000F920F92CDB7DEB79A8389830E94250E67
:1020200089819A810E94900F0F900F90DF91CF913C
:102030000895CF93DF93CDB7DEB781E890E0FC0140
:10204000108285E890E02CEFFC01208384E890E08A
:1020500021E0FC01208389E890E023E0FC0120835B
:1020600088E890E02FEFFC0120838BE890E023E0EC
:10207000FC0120838AE890E02FEFFC0120838DE8AB
:1020800090E023E0FC0120838CE890E02FEFFC013E
:10209000208387E890E023E0FC01208386E890E03D
:1020A0002FEFFC01208380E890E02BEAFC012083E5
:1020B00082E890E0FC01108281E890E02CE0FC01D5
:1020C0002083DF91CF910895CF93DF93CDB7DEB713
:1020D000F8940E94E00C0E94350D0E94FB0C0E94B7
:1020E00019100E94570E0E94720E7894DF91CF91C2
:1020F0000895CF93DF93CDB7DEB783E00E94530DF1
:1021000080937D0482E00E94530D80937E0481E0E1
:102110000E94530D80937F04DF91CF910895CF9358
:10212000DF9300D00F92CDB7DEB79A8389837C838B
:102130006B830E948B0689819A8199234CF02981B7
:102140003A8181E061E0A90121E030E00E94B60A15
:1021500089819A819923C4F481E061E00E94800A18
:1021600080E092E00E94610A89819A819095819530
:102170009F4F9A83898329813A8181E062E0A90196
:1021800021E030E00E94B60A8B819C8199234CF0BB
:102190002B813C8181E064E0A90121E030E00E94D4
:1021A000B60A8B819C819923C4F481E064E00E948B
:1021B000800A80E092E00E94610A8B819C81909568
:1021C00081959F4F9C838B832B813C8181E065E0CF
:1021D000A90121E030E00E94B60A0F900F900F9005
:1021E0000F90DF91CF9108950F931F93CF93DF93BB
:1021F000CDB7DEB7C455D0400FB6F894DEBF0FBEE2
:10220000CDBF01C000000E94791010927C04809123
:102210007E04813188F01092810410928004109223
:1022200083041092820481E080937C040E941B0E40
:102230008AEF6AEF0E94E30D80917D04813118F1ED
:1022400080917C048823F9F480918004909181042A
:102250008330910534F00E941B0E8CE364EB0E94E6
:10226000E30D809180049091810401969093810404
:102270008093800481E080937C040E941B0E8CE399
:1022800064EB0E94E30D80917F04813118F180910D
:102290007C048823F9F48091820490918304833034
:1022A000910534F00E941B0E84EB6CE30E94E30D59
:1022B000809182049091830401969093830480938B
:1022C000820481E080937C040E941B0E84EB6CE30B
:1022D0000E94E30D80917E04803108F013C4809148
:1022E0007D04803108F00EC480917F04803108F0B5
:1022F00009C48091800490918104009709F4B0C1D1
:102300000E941B0E8CE364EB0E94E30D80E090E0E2
:10231000A0E2B1E489839A83AB83BC8369817A812B
:102320008B819C8126E636E646E655E40E944E699E
:10233000DC01CB018D839E83AF83B88711E06D8173
:102340007E818F81988520E030E040E85FE30E9445
:10235000006888230CF010E0112329F081E090E060
:102360009A87898746C011E06D817E818F8198852B
:1023700020E03FEF4FE757E40E944A6918160CF03F
:1023800010E0112361F169817A818B819C8120E0C9
:1023900030E040E251E40E944E69DC01CB01BC0117
:1023A000CD010E946C68DC01CB019A87898712C03D
:1023B00080E791E09C878B878B859C858C01C80189
:1023C0000197F1F78C011C870B8789859A85019706
:1023D0009A87898789859A85009751F717C06D81FB
:1023E0007E818F8198850E946C68DC01CB019A8781
:1023F000898789859A859E878D878D859E858C01A5
:10240000F8013197F1F78F011E870D8780917E04C7
:10241000803108F090C080917D04803108F08BC03D
:1024200080917F04803108F086C00E941B0E8CE3EF
:1024300064EB0E94E30D80E090E0A0EAB0E48F87B7
:10244000988BA98BBA8B6F85788989899A8926E6BA
:1024500036E646E655E40E944E69DC01CB018B8BE3
:102460009C8BAD8BBE8B11E06B897C898D899E899D
:1024700020E030E040E85FE30E94006888230CF031
:1024800010E0112329F081E090E0988F8F8B46C0F7
:1024900011E06B897C898D899E8920E03FEF4FE7B1
:1024A00057E40E944A6918160CF010E0112361F1FC
:1024B0006F85788989899A8920E030E040E251E48B
:1024C0000E944E69DC01CB01BC01CD010E946C6809
:1024D000DC01CB01988F8F8B12C080E791E09A8F3F
:1024E000898F898D9A8D8C01C8010197F1F78C0134
:1024F0001A8F098F8F89988D0197988F8F8B8F896D
:10250000988D009751F717C06B897C898D899E89BA
:102510000E946C68DC01CB01988F8F8B8F89988D1E
:102520009C8F8B8F8B8D9C8D8C01F8013197F1F7EF
:102530008F011C8F0B8F80917E04803108F090C03A
:1025400080917D04803108F08BC080917F048031C0
:1025500008F086C00E941B0E8CE364EB0E94E30D22
:1025600080E090E0A0EAB0E48D8F9E8FAF8FB8A39B
:102570006D8D7E8D8F8D98A126E636E646E655E474
:102580000E944E69DC01CB0189A39AA3ABA3BCA333
:1025900011E069A17AA18BA19CA120E030E040E884
:1025A0005FE30E94006888230CF010E0112329F0FB
:1025B00081E090E09EA38DA346C011E069A17AA1BD
:1025C0008BA19CA120E03FEF4FE757E40E944A69AE
:1025D00018160CF010E0112361F16D8D7E8D8F8D3A
:1025E00098A120E030E040E251E40E944E69DC0115
:1025F000CB01BC01CD010E946C68DC01CB019EA324
:102600008DA312C080E791E098A78FA38FA198A512
:102610008C01C8010197F1F78C0118A70FA38DA1B8
:102620009EA101979EA38DA38DA19EA1009751F716
:1026300017C069A17AA18BA19CA10E946C68DC01E2
:10264000CB019EA38DA38DA19EA19AA789A789A541
:102650009AA58C01F8013197F1F78F011AA709A704
:102660008091820490918304009709F445C20E94EE
:102670001B0E84EB6CE30E94E30D80E090E0A0E28F
:10268000B1E48BA79CA7ADA7BEA76BA57CA58DA524
:102690009EA526E636E646E655E40E944E69DC0134
:1026A000CB018FA798ABA9ABBAAB11E06FA578A906
:1026B00089A99AA920E030E040E85FE30E94006821
:1026C00088230CF010E0112329F081E090E09CAB0E
:1026D0008BAB46C011E06FA578A989A99AA920E023
:1026E0003FEF4FE757E40E944A6918160CF010E0DC
:1026F000112361F16BA57CA58DA59EA520E030E09E
:1027000040E251E40E944E69DC01CB01BC01CD01E5
:102710000E946C68DC01CB019CAB8BAB12C080E7E4
:1027200091E09EAB8DAB8DA99EA98C01C80101974C
:10273000F1F78C011EAB0DAB8BA99CA901979CAB4B
:102740008BAB8BA99CA9009751F717C06FA578A9EF
:1027500089A99AA90E946C68DC01CB019CAB8BAB68
:102760008BA99CA998AF8FAB8FA998AD8C01F8016C
:102770003197F1F78F0118AF0FAB80917E04803154
:1027800008F0D3C080917D04803108F0CEC08091E4
:102790007F04803108F0C9C00E941B0E84EB6CE3FB
:1027A0000E94E30D80E090E0A0EAB0E489AF9AAF28
:1027B000ABAFBCAF69AD7AAD8BAD9CAD26E636E66E
:1027C00046E655E40E944E69DC01CB019E01235C84
:1027D0003F4FF90180839183A283B38311E0CE013F
:1027E000CD96FC01608171818281938120E030E08F
:1027F00040E85FE30E94006888230CF010E011239A
:1028000049F0CE018F5B9F4F21E030E0FC01318326
:1028100020836EC011E0CE01CD96FC0160817181F4
:102820008281938120E03FEF4FE757E40E944A699D
:1028300018160CF010E0112309F449C069AD7AAD07
:102840008BAD9CAD20E030E040E251E40E944E6947
:10285000DC01CB018E010F5B1F4FBC01CD010E943B
:102860006C68DC01CB01F8019183808327C0CE0125
:102870008D5B9F4F20E731E0FC0131832083CE0147
:102880008D5B9F4FFC01808191818C01C801019774
:10289000F1F78C01CE018D5B9F4FFC01118300830A
:1028A000CE018F5B9F4F9E012F5B3F4FF90120812F
:1028B000318121503040FC0131832083CE018F5B78
:1028C0009F4FFC0180819181009789F62EC08E0177
:1028D0000F5B1F4FCE01CD96FC016081718182811B
:1028E00093810E946C68DC01CB01F80191838083A5
:1028F000CE018B5B9F4F9E012F5B3F4FF9012081E3
:102900003181FC0131832083CE018B5B9F4FFC0121
:10291000808191818C01C8010197F1F78C01CE0172
:102920008B5B9F4FFC011183008380917E0480317B
:1029300008F0E2C080917D04803108F0DDC0809114
:102940007F04803108F0D8C00E941B0E84EB6CE33A
:102950000E94E30D9E01295B3F4F80E090E0A0EADA
:10296000B0E4F90180839183A283B3838E01055B78
:102970001F4FCE01895B9F4FFC0160817181828175
:10298000938126E636E646E655E40E944E69DC0170
:10299000CB01F80180839183A283B383CE01855B51
:1029A0009F4F11E0FC01608171818281938120E061
:1029B00030E040E85FE30E94006888230CF010E0FC
:1029C000112349F0CE01815B9F4F21E030E0FC01F3
:1029D0003183208374C0CE01855B9F4F11E0FC01E1
:1029E000608171818281938120E03FEF4FE757E45E
:1029F0000E944A6918160CF010E0112309F44DC02A
:102A0000CE01895B9F4FFC0160817181828193813E
:102A100020E030E040E251E40E944E69DC01CB014D
:102A20008E01015B1F4FBC01CD010E946C68DC016F
:102A3000CB01F8019183808327C0CE018F5A9F4F2D
:102A400020E731E0FC0131832083CE018F5A9F4F74
:102A5000FC01808191818C01C8010197F1F78C0103
:102A6000CE018F5A9F4FFC0111830083CE01815B01
:102A70009F4F9E01215B3F4FF90120813181215001
:102A80003040FC0131832083CE01815B9F4FFC01EC
:102A900080819181009789F62FC08E01015B1F4FC5
:102AA000CE01855B9F4FFC016081718182819381A2
:102AB0000E946C68DC01CB01F80191838083CE0118
:102AC0008D5A9F4F9E01215B3F4FF901208131813B
:102AD000FC0131832083CE018D5A9F4FFC01808100
:102AE00091818C01C8010197F1F78C01CE018D5ABB
:102AF0009F4FFC01118300830E941B0E8CE86CE841
:102B00000E94E30D80917E04813120F080917D044C
:102B1000813150F480917E04813108F473CB80912F
:102B20007F04813108F46ECB1092810410928004EE
:102B3000109283041092820480E590E00E94F30FCB
:102B40000E944D0E8091A6049091A7042091A804A4
:102B50003091A904B9010E948F100000CC5ADF4FB8
:102B60000FB6F894DEBF0FBECDBFDF91CF911F919E
:102B70000F9108950F931F93CF93DF93CDB7DEB7D7
:102B8000E8970FB6F894DEBF0FBECDBF01C00000BE
:102B90000E94791010927C0480917E04813188F02B
:102BA0001092810410928004109283041092820487
:102BB00081E080937C040E941B0E88EC68EC0E94EC
:102BC000E30D80917D04813118F180917C0488238C
:102BD000F9F480918004909181048330910534F060
:102BE0000E941B0E8CE364EB0E94E30D8091800435
:102BF000909181040196909381048093800481E0F8
:102C000080937C040E941B0E8CE364EB0E94E30D16
:102C100080917F04813118F180917C048823F9F43C
:102C200080918204909183048330910534F00E9456
:102C30001B0E84EB6CE30E94E30D80918204909163
:102C400083040196909383048093820481E08093AF
:102C50007C040E941B0E84EB6CE30E94E30D8091C8
:102C60007E04803108F054C280917D04803108F0E8
:102C70004FC280917F04803108F04AC28091800465
:102C800090918104009709F41BC10E941B0E8CE3F4
:102C900064EB0E94E30D80E090E0A0E2B1E4898360
:102CA0009A83AB83BC8369817A818B819C8126E680
:102CB00036E646E655E40E944E69DC01CB018D8381
:102CC0009E83AF83B88711E06D817E818F81988567
:102CD00020E030E040E85FE30E94006888230CF0C9
:102CE00010E0112329F081E090E09A87898746C09F
:102CF00011E06D817E818F81988520E03FEF4FE765
:102D000057E40E944A6918160CF010E0112361F193
:102D100069817A818B819C8120E030E040E251E43E
:102D20000E944E69DC01CB01BC01CD010E946C68A0
:102D3000DC01CB019A87898712C080E791E09C87EC
:102D40008B878B859C858C01C8010197F1F78C01DD
:102D50001C870B8789859A8501979A87898789853A
:102D60009A85009751F717C06D817E818F81988574
:102D70000E946C68DC01CB019A87898789859A85D6
:102D80009E878D878D859E858C01C8010197F1F7FF
:102D90008C011E870D8780917E04803108F090C0E1
:102DA00080917D04803108F08BC080917F04803158
:102DB00008F086C00E941B0E8CE364EB0E94E30DBA
:102DC00080E090E0A0EAB0E48F87988BA98BBA8B63
:102DD0006F85788989899A8926E636E646E655E43C
:102DE0000E944E69DC01CB018B8B9C8BAD8BBE8B23
:102DF00011E06B897C898D899E8920E030E040E874
:102E00005FE30E94006888230CF010E0112329F092
:102E100081E090E0988F8F8B46C011E06B897C89B0
:102E20008D899E8920E03FEF4FE757E40E944A6971
:102E300018160CF010E0112361F16F8578898989EB
:102E40009A8920E030E040E251E40E944E69DC01C2
:102E5000CB01BC01CD010E946C68DC01CB01988FD5
:102E60008F8B12C080E791E09A8F898F898D9A8D20
:102E70008C01C8010197F1F78C011A8F098F8F8996
:102E8000988D0197988F8F8B8F89988D009751F728
:102E900017C06B897C898D899E890E946C68DC01D2
:102EA000CB01988F8F8B8F89988D9C8F8B8F8B8D7B
:102EB0009C8D8C01C8010197F1F78C011C8F0B8F41
:102EC0008091820490918304009709F41BC10E94B1
:102ED0001B0E84EB6CE30E94E30D80E090E0A0E227
:102EE000B1E48D8F9E8FAF8FB8A36D8D7E8D8F8D4A
:102EF00098A126E636E646E655E40E944E69DC01D6
:102F0000CB0189A39AA3ABA3BCA311E069A17AA1C9
:102F10008BA19CA120E030E040E85FE30E940068C4
:102F200088230CF010E0112329F081E090E09EA3AB
:102F30008DA346C011E069A17AA18BA19CA120E0DC
:102F40003FEF4FE757E40E944A6918160CF010E073
:102F5000112361F16D8D7E8D8F8D98A120E030E081
:102F600040E251E40E944E69DC01CB01BC01CD017D
:102F70000E946C68DC01CB019EA38DA312C080E788
:102F800091E098A78FA38FA198A58C01C801019704
:102F9000F1F78C0118A70FA38DA19EA101979EA305
:102FA0008DA38DA19EA1009751F717C069A17AA1A9
:102FB0008BA19CA10E946C68DC01CB019EA38DA318
:102FC0008DA19EA19AA789A789A59AA58C01C80160
:102FD0000197F1F78C011AA709A780917E0480312F
:102FE00008F090C080917D04803108F08BC0809102
:102FF0007F04803108F086C00E941B0E84EB6CE3D6
:103000000E94E30D80E090E0A0EAB0E48BA79CA7CB
:10301000ADA7BEA76BA57CA58DA59EA526E636E629
:1030200046E655E40E944E69DC01CB018FA798ABC0
:10303000A9ABBAAB11E06FA578A989A99AA920E03C
:1030400030E040E85FE30E94006888230CF010E065
:10305000112329F081E090E09CAB8BAB46C011E0DE
:103060006FA578A989A99AA920E03FEF4FE757E417
:103070000E944A6918160CF010E0112361F16BA54B
:103080007CA58DA59EA520E030E040E251E40E94A1
:103090004E69DC01CB01BC01CD010E946C68DC01F2
:1030A000CB019CAB8BAB12C080E791E09EAB8DABAC
:1030B0008DA99EA98C01C8010197F1F78C011EAB67
:1030C0000DAB8BA99CA901979CAB8BAB8BA99CA941
:1030D000009751F717C06FA578A989A99AA90E94EE
:1030E0006C68DC01CB019CAB8BAB8BA99CA998AF26
:1030F0008FAB8FA998AD8C01C8010197F1F78C01B6
:1031000018AF0FAB0E941B0E80EA60EA0E94E30D2D
:1031100080917E04813120F080917D04813150F4D2
:1031200080917E04813108F432CD80917F04813119
:1031300008F42DCD10928104109280041092830423
:10314000109282040E944D0E8091A6049091A704D3
:103150002091A8043091A904B9010E948F100000A9
:10316000E8960FB6F894DEBF0FBECDBFDF91CF91CA
:103170001F910F910895CF93DF93CDB7DEB784E20F
:1031800090E024E230E0F90120812062FC012083FC
:1031900085E290E025E230E0F90120812062FC0127
:1031A0002083DF91CF910895CF93DF93CDB7DEB722
:1031B00084E290E024E230E0F90120812064FC0107
:1031C000208385E290E025E230E0F901208120644F
:1031D000FC012083DF91CF910895CF93DF93CDB78A
:1031E000DEB789E890E023E0FC01208388E890E0E6
:1031F0002FEFFC012083DF91CF910895CF93DF93D0
:10320000CDB7DEB78BE890E023E0FC0120838AE8AD
:1032100090E02FEFFC012083DF91CF910895CF93B1
:10322000DF93CDB7DEB781ED90E0FC01108280ED39
:1032300090E0FC01108282ED90E026E0FC0120830A
:1032400084ED90E02FE5FC01208385ED90E0FC010A
:10325000108281ED90E028E9FC012083DF91CF917D
:1032600008951F920F920FB60F9200905B000F927D
:103270001124EF92FF920F931F932F933F934F933D
:103280005F936F937F938F939F93AF93BF93EF93CE
:10329000FF93CF93DF93CDB7DEB7C454D040DEBFEA
:1032A000CDBF2DB73EB78DB79EB7AC0186ED90E090
:1032B000FC0180818093CC0486ED90E06091CC0489
:1032C000FC0160831E821D828D819E818C30910560
:1032D00084F48091CC04882F90E0BC01605470404D
:1032E0008D819E81880F991F8D529B4FFC017183A8
:1032F00060838D819E818C30910569F48091CC042E
:10330000882F90E08054904099230CF40196959575
:1033100087959A83898389819A8198878F838F8102
:103320009885BC01615070407A876987BC017B0138
:10333000EE0CFF1C880F991F880F991F6DB77EB781
:10334000681B790B0FB6F8947EBF0FBE6DBF8DB7AB
:103350009EB7019600969C878B8781E090E09C83C6
:103360008B838D819E818D3091059CF18B819C8119
:10337000992314F18091CC04882F90E0BC01605413
:103380007040EB85FC85A981BA810B811C81E09E90
:10339000C001E19E900DF09E900D1124AA0FBB1F5D
:1033A0008A0F9B1F8E0F9F1FFC01718360838B818F
:1033B0009C8101979C838B838B819C8199234CF406
:1033C00089819A8101979A83898381E090E09C8327
:1033D0008B8389819A81BC01645F7F4F8D819E813F
:1033E00068177907FCF48D819E81BC016C50704098
:1033F000E981FA8180E090E08E1B9F0B880F991F76
:10340000860F971F6091CC04662F70E06054704067
:10341000880F991FFE0131968E0F9F1F8496FC0125
:10342000718360838D819E8101969E838D830FB60B
:10343000F8945EBF0FBE4DBF0FB6F8943EBF0FBEEF
:103440002DBFCC5BDF4FDEBFCDBFDF91CF91FF91B2
:10345000EF91BF91AF919F918F917F916F915F910C
:103460004F913F912F911F910F91FF90EF900F90EF
:1034700000925B000F900FBE0F901F9018950F9356
:103480001F93CF93DF93CDB7DEB7AA970FB6F8940B
:10349000DEBF0FBECDBF1092850489C08091850428
:1034A0000E94440C80E090E0A0EFB1E489839A830D
:1034B000AB83BC8369817A818B819C8126E636E669
:1034C00046E655E40E944E69DC01CB018D839E8364
:1034D000AF83B88711E06D817E818F81988520E070
:1034E00030E040E85FE30E94006888230CF010E0C1
:1034F000112329F081E090E09A87898746C011E086
:103500006D817E818F81988520E03FEF4FE757E402
:103510000E944A6918160CF010E0112361F16981CC
:103520007A818B819C8120E030E040E251E40E946E
:103530004E69DC01CB01BC01CD010E946C68DC014D
:10354000CB019A87898712C080E791E09C878B879F
:103550008B859C858C01C8010197F1F78C011C8734
:103560000B8789859A8501979A87898789859A85A6
:10357000009751F717C06D817E818F8198850E94D9
:103580006C68DC01CB019A87898789859A859E873B
:103590008D878D859E858C01C8010197F1F78C017F
:1035A0001E870D87809185048F5F809385048091AD
:1035B0008504813408F472CF81E48093840489C047
:1035C000809184040E94920C80E090E0A0EFB1E42E
:1035D0008F87988BA98BBA8B6F85788989899A890F
:1035E00026E636E646E655E40E944E69DC01CB014C
:1035F0008B8B9C8BAD8BBE8B11E06B897C898D890D
:103600009E8920E030E040E85FE30E940068882364
:103610000CF010E0112329F081E090E0988F8F8B5F
:1036200046C011E06B897C898D899E8920E03FEF3F
:103630004FE757E40E944A6918160CF010E0112376
:1036400061F16F85788989899A8920E030E040E2CC
:1036500051E40E944E69DC01CB01BC01CD010E9406
:103660006C68DC01CB01988F8F8B12C080E791E0F2
:103670009A8F898F898D9A8D8C01C8010197F1F7F6
:103680008C011A8F098F8F89988D0197988F8F8B56
:103690008F89988D009751F717C06B897C898D8928
:1036A0009E890E946C68DC01CB01988F8F8B8F897B
:1036B000988D9C8F8B8F8B8D9C8D8C01C801019771
:1036C000F1F78C011C8F0B8F8091840481508093C3
:1036D000840480918404803108F072CF87E3809362
:1036E000850489C0809185040E94440C80E090E0AC
:1036F000A0EFB1E48D8F9E8FAF8FB8A36D8D7E8DBF
:103700008F8D98A126E636E646E655E40E944E697E
:10371000DC01CB0189A39AA3ABA3BCA311E069A1EF
:103720007AA18BA19CA120E030E040E85FE30E94F9
:10373000006888230CF010E0112329F081E090E06C
:103740009EA38DA346C011E069A17AA18BA19CA183
:1037500020E03FEF4FE757E40E944A6918160CF04B
:1037600010E0112361F16D8D7E8D8F8D98A120E089
:1037700030E040E251E40E944E69DC01CB01BC0123
:10378000CD010E946C68DC01CB019EA38DA312C009
:1037900080E791E098A78FA38FA198A58C01C8011D
:1037A0000197F1F78C0118A70FA38DA19EA1019796
:1037B0009EA38DA38DA19EA1009751F717C069A16B
:1037C0007AA18BA19CA10E946C68DC01CB019EA315
:1037D0008DA38DA19EA19AA789A789A59AA58C01E1
:1037E000C8010197F1F78C011AA709A780918504F8
:1037F00081508093850480918504882309F072CFDD
:10380000AA960FB6F894DEBF0FBECDBFDF91CF9161
:103810001F910F9108950F931F93CF93DF93CDB70F
:10382000DEB7E8970FB6F894DEBF0FBECDBF8FE0CE
:103830008093850489C0809185040E94440C80E0B7
:1038400090E0A0EFB1E489839A83AB83BC83698164
:103850007A818B819C8126E636E646E655E40E9415
:103860004E69DC01CB018D839E83AF83B88711E065
:103870006D817E818F81988520E030E040E85FE3B4
:103880000E94006888230CF010E0112329F081E0E9
:1038900090E09A87898746C011E06D817E818F8193
:1038A000988520E03FEF4FE757E40E944A691816D9
:1038B0000CF010E0112361F169817A818B819C8188
:1038C00020E030E040E251E40E944E69DC01CB018F
:1038D000BC01CD010E946C68DC01CB019A8789870D
:1038E00012C080E791E09C878B878B859C858C013B
:1038F000C8010197F1F78C011C870B8789859A8590
:1039000001979A87898789859A85009751F717C00B
:103910006D817E818F8198850E946C68DC01CB016E
:103920009A87898789859A859E878D878D859E85CB
:103930008C01C8010197F1F78C011E870D878091DA
:1039400085048F5F8093850480918504813408F419
:1039500072CF89E18093840489C0809184040E949D
:10396000920C80E090E0A0EFB1E48F87988BA98B58
:10397000BA8B6F85788989899A8926E636E646E684
:1039800055E40E944E69DC01CB018B8B9C8BAD8B87
:10399000BE8B11E06B897C898D899E8920E030E0A7
:1039A00040E85FE30E94006888230CF010E01123D8
:1039B00029F081E090E0988F8F8B46C011E06B89F1
:1039C0007C898D899E8920E03FEF4FE757E40E9474
:1039D0004A6918160CF010E0112361F16F8578899F
:1039E00089899A8920E030E040E251E40E944E69E2
:1039F000DC01CB01BC01CD010E946C68DC01CB0174
:103A0000988F8F8B12C080E791E09A8F898F898D74
:103A10009A8D8C01C8010197F1F78C011A8F098FDB
:103A20008F89988D0197988F8F8B8F89988D0097AC
:103A300051F717C06B897C898D899E890E946C68BB
:103A4000DC01CB01988F8F8B8F89988D9C8F8B8F0A
:103A50008B8D9C8D8C01C8010197F1F78C011C8F17
:103A60000B8F809184048F5F809384048091840401
:103A7000883208F472CF81E48093850489C08091F4
:103A800085040E94440C80E090E0A0EFB1E48D8FAB
:103A90009E8FAF8FB8A36D8D7E8D8F8D98A126E6FA
:103AA00036E646E655E40E944E69DC01CB0189A367
:103AB0009AA3ABA3BCA311E069A17AA18BA19CA19D
:103AC00020E030E040E85FE30E94006888230CF0CB
:103AD00010E0112329F081E090E09EA38DA346C061
:103AE00011E069A17AA18BA19CA120E03FEF4FE7F3
:103AF00057E40E944A6918160CF010E0112361F196
:103B00006D8D7E8D8F8D98A120E030E040E251E4F4
:103B10000E944E69DC01CB01BC01CD010E946C68A2
:103B2000DC01CB019EA38DA312C080E791E098A792
:103B30008FA38FA198A58C01C8010197F1F78C0183
:103B400018A70FA38DA19EA101979EA38DA38DA160
:103B50009EA1009751F717C069A17AA18BA19CA1E2
:103B60000E946C68DC01CB019EA38DA38DA19EA158
:103B70009AA789A789A59AA58C01C8010197F1F791
:103B80008C011AA709A78091850481508093850430
:103B900080918504803108F072CF88E2809384049C
:103BA00089C0809184040E94920C80E090E0A0EF94
:103BB000B1E48BA79CA7ADA7BEA76BA57CA58DA5DF
:103BC0009EA526E636E646E655E40E944E69DC01EF
:103BD000CB018FA798ABA9ABBAAB11E06FA578A9C1
:103BE00089A99AA920E030E040E85FE30E940068DC
:103BF00088230CF010E0112329F081E090E09CABC9
:103C00008BAB46C011E06FA578A989A99AA920E0DD
:103C10003FEF4FE757E40E944A6918160CF010E096
:103C2000112361F16BA57CA58DA59EA520E030E058
:103C300040E251E40E944E69DC01CB01BC01CD01A0
:103C40000E946C68DC01CB019CAB8BAB12C080E79F
:103C500091E09EAB8DAB8DA99EA98C01C801019707
:103C6000F1F78C011EAB0DAB8BA99CA901979CAB06
:103C70008BAB8BA99CA9009751F717C06FA578A9AA
:103C800089A99AA90E946C68DC01CB019CAB8BAB23
:103C90008BA99CA998AF8FAB8FA998AD8C01C80157
:103CA0000197F1F78C0118AF0FAB809184048F5FFF
:103CB0008093840480918404813408F472CFE89660
:103CC0000FB6F894DEBF0FBECDBFDF91CF911F912D
:103CD0000F9108950F931F93CF93DF93CDB7DEB766
:103CE000CE5DD6400FB6F894DEBF0FBECDBF0E94AA
:103CF00064100E949500CE018D5B9B4F24E032E062
:103D000040ECF90100802F5F3F4FFC0100820196DB
:103D100041504423B1F7CE018D5F9A4F9C0144EC92
:103D200052E080E891E0FA0100804F5F5F4FF901B7
:103D300000822F5F3F4F01970097A9F78EEF9FEF0B
:103D40009093A7048093A60482E090E09093A90446
:103D50008093A80481E090E09A8389830E9479107F
:103D600080917E04813120F080917D04813140F486
:103D700080917E04813158F080917F04813138F048
:103D80000E941B0E8CE86CE80E94E30DE7CF0E94B6
:103D9000F41087E38093850489C0809185040E9494
:103DA000440C80E090E0A0EFB1E489A79AA7ABA70C
:103DB000BCA769A57AA58BA59CA526E636E646E6AE
:103DC00055E40E944E69DC01CB018DA79EA7AFA7E9
:103DD000B8AB11E06DA57EA58FA598A920E030E0D5
:103DE00040E85FE30E94006888230CF010E0112394
:103DF00029F081E090E09AAB89AB46C011E06DA557
:103E00007EA58FA598A920E03FEF4FE757E40E94D9
:103E10004A6918160CF010E0112361F169A57AA522
:103E20008BA59CA520E030E040E251E40E944E6961
:103E3000DC01CB01BC01CD010E946C68DC01CB012F
:103E40009AAB89AB12C080E791E09CAB8BAB8BA99E
:103E50009CA98C01C8010197F1F78C011CAB0BAB3D
:103E600089A99AA901979AAB89AB89A99AA90097C0
:103E700051F717C06DA57EA58FA598A90E946C6803
:103E8000DC01CB019AAB89AB89A99AA99EAB8DAB1A
:103E90008DA99EA98C01F8013197F1F78F011EAB16
:103EA0000DAB8091850481508093850480918504B9
:103EB000803108F072CF84E180938404BCC080918B
:103EC00084040E94920C80E090E0A0EFB1E48FABFC
:103ED00098AFA9AFBAAF6FA978AD89AD9AAD26E614
:103EE00036E646E655E40E944E69DC01CB018BAF15
:103EF0009CAFADAFBEAF11E06BAD7CAD8DAD9EADF7
:103F000020E030E040E85FE30E94006888230CF086
:103F100010E0112341F021E030E0CE01CF96FC010A
:103F20003183208366C011E06BAD7CAD8DAD9EAD5D
:103F300020E03FEF4FE757E40E944A6918160CF063
:103F400010E0112309F447C06FA978AD89AD9AAD8F
:103F500020E030E040E251E40E944E69DC01CB01F8
:103F6000BC01CD010E946C68DC01CB019E01215C8B
:103F70003F4FF9019183808326C0CE018F5B9F4F15
:103F800020E731E0FC0131832083CE018F5B9F4F1E
:103F9000FC01808191818C01C8010197F1F78C01AE
:103FA000CE018F5B9F4FFC0111830083CE01CF9622
:103FB000FC01808191819C0121503040CE01CF963F
:103FC000FC0131832083CE01CF96FC018081918159
:103FD000009799F62BC06BAD7CAD8DAD9EAD0E9468
:103FE0006C68DC01CB019E01215C3F4FF90191839C
:103FF0008083CE018D5B9F4F9E01215C3F4FF90175
:1040000020813181FC0131832083CE018D5B9F4F64
:10401000FC01808191818C01C8010197F1F78C012D
:10402000CE018D5B9F4FFC0111830083809184043E
:104030008F5F8093840480918404813408F43FCF9F
:1040400086E090E09C838B83CE018D57994F24E4CA
:1040500034E048E1F90100802F5F3F4FFC0100820E
:10406000019641504423B1F7CE018556994F20E285
:10407000FC01322F11923A95E9F7CE018556994FFE
:1040800021E030E0FC0131832083CE018556994F39
:104090002DE030E0FC0133832283CE018556994F19
:1040A0002AE030E0FC0131872087CE018556994F08
:1040B00020E130E0FC0133872287CE018556994FFD
:1040C0002CE030E0FC01318B208BCE018556994FDE
:1040D0002DE030E0FC01338B228BCE018556994FC9
:1040E00027E130E0FC01318F208FCE018556994FBA
:1040F00023E030E0FC01338F228FCE018554994FAD
:104100002CE534E048E1F90100802F5F3F4FFC01CE
:104110000082019641504423B1F718861F821A8607
:1041200019869E012554394F8F819885880F991FD4
:10413000820F931FFC01808191819C878B871E8653
:104140001D86188A1F861A8A198A89819A81817028
:104150009070882309F45BC11A8A198A8F8598891F
:104160000196988B8F878B859C858A3091052CF4DE
:104170008B859C858330910541F5188A1F868D8536
:104180009E8501969E878D878D859E8584309105BD
:1041900021F40E944D0E0C948B6789859A850196B7
:1041A0009A8789878F819885019698878F839E014A
:1041B0002554394F8F819885880F991F820F931F3F
:1041C000FC01808191819C878B871C8E1B8E29C06E
:1041D0009E012D57394F8B8D9C8D880F991F820F13
:1041E000931FFC01208131818B859C85281739071D
:1041F00099F48B8D9C8D9E838D839E012D57394F15
:104200008B8D9C8D880F991F820F931F2FEF3FEF8F
:10421000FC01318320830AC08B8D9C8D01969C8F7D
:104220008B8F8B8D9C8D8C30910594F21E8E1D8E04
:1042300070C02091A6043091A704AE014D5B5B4F86
:104240008D819E81BC01660F771F660F771F8D8D54
:104250009E8D860F971F880F991F880F991F840FB7
:10426000951FFC0180819181A901481B590BCA014E
:104270009C8B8B8B2091A8043091A904AE014D5BDF
:104280005B4F8D819E81BC01660F771F660F771F84
:104290008D8D9E8D860F971F880F991F880F991FF0
:1042A000840F951F0296FC0180819181A901481B12
:1042B000590BCA019E8B8D8B8B899C8999233CF469
:1042C0008B899C89909581959F4F9C8B8B8B8D8939
:1042D0009E8999233CF48D899E89909581959F4F65
:1042E0009E8B8D8B2B893C898D899E89280F391F48
:1042F000AE014952594F8D8D9E8D880F991F840FA5
:10430000951FFC01318320838D8D9E8D01969E8F9C
:104310008D8F8D8D9E8D843091050CF48ACFCE01CA
:104320008952994FFC0180819181988F8F8B1A8ED1
:10433000198E81E090E098A38F8F28C09E012952AA
:10434000394F8F8D98A1880F991F820F931FFC0101
:10435000208131818F89988D2817390794F49E0127
:104360002952394F8F8D98A1880F991F820F931F63
:10437000FC0180819181988F8F8B8F8D98A19A8F6E
:10438000898F8F8D98A1019698A38F8F8F8D98A17B
:10439000843091059CF29E012D5B3B4F8D819E8167
:1043A000AC01440F551F440F551F898D9A8D840F02
:1043B000951F880F991F880F991F820F931FFC016B
:1043C00020813181CE018D52994FFC0131832083B0
:1043D0009E012D5B3B4F8D819E81AC01440F551F8B
:1043E000440F551F898D9A8D840F951F880F991F33
:1043F000880F991F820F931F0296FC012081318143
:10440000CE018D52994FFC013383228346C08981AE
:104410009A8181709070009709F03FC01A8A198ABA
:104420009E012D5F3A4F8D819E81AC01440F551F37
:10443000440F551F8F859889840F951F880F991FEA
:10444000880F991F820F931FFC0120813181CE01BB
:104450008D52994FFC01318320839E012D5F3A4F8D
:104460008D819E81AC01440F551F440F551F8F85D0
:104470009889840F951F880F991F880F991F820FA5
:10448000931F0296FC0120813181CE018D52994FFC
:10449000FC013383228301C00000CE018D52994F6D
:1044A000FC01228133818091A8049091A904821794
:1044B00093070CF027C68B819C818430910509F00D
:1044C000E3C08091A8049091A90401969093A90457
:1044D0008093A80484E090E09C838B839E012B5BF7
:1044E0003F4F80E090E0A8ECB2E4F9018083918333
:1044F000A283B3838E01075B1F4FCE018B5B9F4F5F
:10450000FC01608171818281938126E636E646E670
:1045100055E40E944E69DC01CB01F8018083918350
:10452000A283B383CE01875B9F4F11E0FC016081C2
:1045300071818281938120E030E040E85FE30E9456
:10454000006888230CF010E0112349F0CE01835B52
:104550009F4F21E030E0FC013183208374C0CE0105
:10456000875B9F4F11E0FC016081718182819381A3
:1045700020E03FEF4FE757E40E944A6918160CF01D
:1045800010E0112309F44DC0CE018B5B9F4FFC015D
:10459000608171818281938120E030E040E251E4CA
:1045A0000E944E69DC01CB018E01035B1F4FBC01F1
:1045B000CD010E946C68DC01CB01F80191838083FE
:1045C00027C0CE01815B9F4F20E731E0FC013183A2
:1045D0002083CE01815B9F4FFC01808191818C0102
:1045E000C8010197F1F78C01CE01815B9F4FFC015F
:1045F00011830083CE01835B9F4F9E01235B3F4F5E
:10460000F9012081318121503040FC013183208328
:10461000CE01835B9F4FFC0180819181009789F6D9
:104620002FC08E01035B1F4FCE01875B9F4FFC01A4
:1046300060817181828193810E946C68DC01CB0171
:10464000F80191838083CE018F5A9F4F9E01235B97
:104650003F4FF90120813181FC0131832083CE015C
:104660008F5A9F4FFC01808191818C01C801019775
:10467000F1F78C01CE018F5A9F4FFC01118300830B
:104680000E94F4100C941A3B8B819C81863091051A
:1046900009F0B9C18091A8049091A9040196909362
:1046A000A9048093A80484E090E09C838B839E01FE
:1046B0002D5A3F4F80E090E0AAEFB3E4F9018083E8
:1046C0009183A283B3838E01095A1F4FCE018D5A65
:1046D0009F4FFC01608171818281938126E636E6DD
:1046E00046E655E40E944E69DC01CB01F801808367
:1046F0009183A283B383CE01895A9F4F11E0FC01BD
:10470000608171818281938120E030E040E85FE345
:104710000E94006888230CF010E0112349F0CE01BC
:10472000855A9F4F21E030E0FC013183208374C023
:10473000CE01895A9F4F11E0FC0160817181828115
:10474000938120E03FEF4FE757E40E944A69181633
:104750000CF010E0112309F44DC0CE018D5A9F4F8B
:10476000FC01608171818281938120E030E040E230
:1047700051E40E944E69DC01CB018E01055A1F4FA6
:10478000BC01CD010E946C68DC01CB01F801918372
:10479000808327C0CE01835A9F4F20E731E0FC0180
:1047A00031832083CE01835A9F4FFC018081918108
:1047B0008C01C8010197F1F78C01CE01835A9F4FFC
:1047C000FC0111830083CE01855A9F4F9E01255A1B
:1047D0003F4FF9012081318121503040FC0131836C
:1047E0002083CE01855A9F4FFC01808191810097E3
:1047F00089F62FC08E01055A1F4FCE01895A9F4F4F
:10480000FC0160817181828193810E946C68DC016E
:10481000CB01F80191838083CE01815A9F4F9E0185
:10482000255A3F4FF90120813181FC0131832083DA
:10483000CE01815A9F4FFC01808191818C01C8017A
:104840000197F1F78C01CE01815A9F4FFC01118332
:10485000008385E590E00E946A0F9E012F593F4F2B
:1048600080E090E0A8ECB2E4F90180839183A28318
:10487000B3838E010B591F4FCE018F599F4FFC01FF
:10488000608171818281938126E636E646E655E4B1
:104890000E944E69DC01CB01F80180839183A283E1
:1048A000B383CE018B599F4F11E0FC016081718170
:1048B0008281938120E030E040E85FE30E9400685D
:1048C00088230CF010E0112349F0CE0187599F4F47
:1048D00021E030E0FC013183208374C0CE018B598C
:1048E0009F4F11E0FC01608171818281938120E002
:1048F0003FEF4FE757E40E944A6918160CF010E0AA
:10490000112309F44DC0CE018F599F4FFC016081E6
:1049100071818281938120E030E040E251E40E9485
:104920004E69DC01CB018E0107591F4FBC01CD013F
:104930000E946C68DC01CB01F8019183808327C061
:10494000CE0185599F4F20E731E0FC013183208360
:10495000CE0185599F4FFC01808191818C01C80156
:104960000197F1F78C01CE0185599F4FFC0111830E
:104970000083CE0187599F4F9E0127593F4FF90170
:104980002081318121503040FC0131832083CE01D0
:1049900087599F4FFC0180819181009789F62FC034
:1049A0008E0107591F4FCE018B599F4FFC0160812B
:1049B0007181828193810E946C68DC01CB01F801D6
:1049C00091838083CE0183599F4F9E0127593F4F8A
:1049D000F90120813181FC0131832083CE0183598B
:1049E0009F4FFC01808191818C01C8010197F1F7F3
:1049F0008C01CE0183599F4FFC01118300830E94DB
:104A0000F4100C941A3B8B819C818730910509F03E
:104A1000B9C18091A8049091A90401969093A9042A
:104A20008093A80484E090E09C838B839E012159AD
:104A30003F4F80E090E0AAEFB3E4F90180839183D7
:104A4000A283B3838E010D581F4FCE0181599F4F12
:104A5000FC01608171818281938126E636E646E61B
:104A600055E40E944E69DC01CB01F80180839183FB
:104A7000A283B383CE018D589F4F11E0FC0160816A
:104A800071818281938120E030E040E85FE30E9401
:104A9000006888230CF010E0112349F0CE018958FA
:104AA0009F4F21E030E0FC013183208374C0CE01B0
:104AB0008D589F4F11E0FC0160817181828193814B
:104AC00020E03FEF4FE757E40E944A6918160CF0C8
:104AD00010E0112309F44DC0CE0181599F4FFC0114
:104AE000608171818281938120E030E040E251E475
:104AF0000E944E69DC01CB018E0109581F4FBC0199
:104B0000CD010E946C68DC01CB01F80191838083A8
:104B100027C0CE0187589F4F20E731E0FC01318349
:104B20002083CE0187589F4FFC01808191818C01A9
:104B3000C8010197F1F78C01CE0187589F4FFC0106
:104B400011830083CE0189589F4F9E0129583F4F02
:104B5000F9012081318121503040FC0131832083D3
:104B6000CE0189589F4FFC0180819181009789F681
:104B70002FC08E0109581F4FCE018D589F4FFC0149
:104B800060817181828193810E946C68DC01CB011C
:104B9000F80191838083CE0185589F4F9E0129584B
:104BA0003F4FF90120813181FC0131832083CE0107
:104BB00085589F4FFC01808191818C01C80101972C
:104BC000F1F78C01CE0185589F4FFC0111830083C2
:104BD00085E590E00E947D0F9E0123583F4F80E0C5
:104BE00090E0A8ECB2E4F90180839183A283B383BF
:104BF0008E010F571F4FCE0183589F4FFC016081DC
:104C000071818281938126E636E646E655E40E946C
:104C10004E69DC01CB01F80180839183A283B383C9
:104C2000CE018F579F4F11E0FC016081718182811D
:104C3000938120E030E040E85FE30E940068882331
:104C40000CF010E0112349F0CE018B579F4F21E06B
:104C500030E0FC013183208374C0CE018F579F4F19
:104C600011E0FC01608171818281938120E03FEF3E
:104C70004FE757E40E944A6918160CF010E0112320
:104C800009F44DC0CE0183589F4FFC0160817181B2
:104C90008281938120E030E040E251E40E944E693D
:104CA000DC01CB018E010B571F4FBC01CD010E94CF
:104CB0006C68DC01CB01F8019183808327C0CE01B1
:104CC00089579F4F20E731E0FC0131832083CE01DB
:104CD00089579F4FFC01808191818C01C801019708
:104CE000F1F78C01CE0189579F4FFC01118300839E
:104CF000CE018B579F4F9E012B573F4FF9012081CB
:104D0000318121503040FC0131832083CE018B570B
:104D10009F4FFC0180819181009789F62FC08E0101
:104D20000B571F4FCE018F579F4FFC016081718140
:104D3000828193810E946C68DC01CB01F801918330
:104D40008083CE0187579F4F9E012B573F4FF9011C
:104D500020813181FC0131832083CE0187579F4F11
:104D6000FC01808191818C01C8010197F1F78C01D0
:104D7000CE0187579F4FFC01118300830E94F410DE
:104D80000C941A3B8B819C818530910511F00C9419
:104D90001A3B8091A8049091A90401969093A904CC
:104DA0008093A80484E090E09C838B839E01255728
:104DB0003F4F80E090E0AAEFB3E4F9018083918354
:104DC000A283B3838E0101571F4FCE0185579F4F9A
:104DD000FC01608171818281938126E636E646E698
:104DE00055E40E944E69DC01CB01F8018083918378
:104DF000A283B383CE0181579F4F11E0FC016081F4
:104E000071818281938120E030E040E85FE30E947D
:104E1000006888230CF010E0112349F0CE018D5674
:104E20009F4F21E030E0FC013183208374C0CE012C
:104E300081579F4F11E0FC016081718182819381D4
:104E400020E03FEF4FE757E40E944A6918160CF044
:104E500010E0112309F44DC0CE0185579F4FFC018E
:104E6000608171818281938120E030E040E251E4F1
:104E70000E944E69DC01CB018E010D561F4FBC0113
:104E8000CD010E946C68DC01CB01F8019183808325
:104E900027C0CE018B569F4F20E731E0FC013183C4
:104EA0002083CE018B569F4FFC01808191818C0124
:104EB000C8010197F1F78C01CE018B569F4FFC0181
:104EC00011830083CE018D569F4F9E012D563F4F7B
:104ED000F9012081318121503040FC013183208350
:104EE000CE018D569F4FFC0180819181009789F6FC
:104EF0002FC08E010D561F4FCE0181579F4FFC01D1
:104F000060817181828193810E946C68DC01CB0198
:104F1000F80191838083CE0189569F4F9E012D56C3
:104F20003F4FF90120813181FC0131832083CE0183
:104F300089569F4FFC01808191818C01C8010197A6
:104F4000F1F78C01CE0189569F4FFC01118300833C
:104F500089EB90E00E947D0F9E0127563F4F80E035
:104F600090E0A8ECB2E4F90180839183A283B3833B
:104F70008E0103561F4FCE0187569F4FFC01608163
:104F800071818281938126E636E646E655E40E94E9
:104F90004E69DC01CB01F80180839183A283B38346
:104FA000CE0183569F4F11E0FC01608171818281A7
:104FB000938120E030E040E85FE30E9400688823AE
:104FC0000CF010E0112349F0CE018F559F4F21E0E6
:104FD00030E0FC013183208374C0CE0183569F4FA3
:104FE00011E0FC01608171818281938120E03FEFBB
:104FF0004FE757E40E944A6918160CF010E011239D
:1050000009F44DC0CE0187569F4FFC01608171812C
:105010008281938120E030E040E251E40E944E69B9
:10502000DC01CB018E010F551F4FBC01CD010E9449
:105030006C68DC01CB01F8019183808327C0CE012D
:105040008D559F4F20E731E0FC0131832083CE0155
:105050008D559F4FFC01808191818C01C801019782
:10506000F1F78C01CE018D559F4FFC011183008318
:10507000CE018F559F4F9E012F553F4FF901208143
:10508000318121503040FC0131832083CE018F5586
:105090009F4FFC0180819181009789F62FC08E017E
:1050A0000F551F4FCE0183569F4FFC0160817181C8
:1050B000828193810E946C68DC01CB01F8019183AD
:1050C0008083CE018B559F4F9E012F553F4FF90195
:1050D00020813181FC0131832083CE018B559F4F8C
:1050E000FC01808191818C01C8010197F1F78C014D
:1050F000CE018B559F4FFC01118300830E94F41059
:105100000C941A3BCE018D52994FFC0120813181C4
:105110008091A6049091A704821793070CF027C6EC
:105120008B819C818430910509F0B9C18091A604DE
:105130009091A70401969093A7048093A60486E01B
:1051400090E09C838B839E0129553F4F80E090E047
:10515000AAEFB3E4F90180839183A283B3838E0124
:1051600005551F4FCE0189559F4FFC01608171810C
:105170008281938126E636E646E655E40E944E6932
:10518000DC01CB01F80180839183A283B383CE013C
:1051900085559F4F11E0FC0160817181828193816F
:1051A00020E030E040E85FE30E94006888230CF0D4
:1051B00010E0112349F0CE0181559F4F21E030E0EE
:1051C000FC013183208374C0CE0185559F4F11E0CF
:1051D000FC01608171818281938120E03FEF4FE784
:1051E00057E40E944A6918160CF010E0112309F4E4
:1051F0004DC0CE0189559F4FFC0160817181828134
:10520000938120E030E040E251E40E944E69DC01ED
:10521000CB018E0101551F4FBC01CD010E946C686E
:10522000DC01CB01F8019183808327C0CE018F542C
:105230009F4F20E731E0FC0131832083CE018F5462
:105240009F4FFC01808191818C01C8010197F1F78A
:105250008C01CE018F549F4FFC0111830083CE013E
:1052600081559F4F9E0121553F4FF901208131818A
:1052700021503040FC0131832083CE0181559F4F66
:10528000FC0180819181009789F62FC08E01015524
:105290001F4FCE0185559F4FFC0160817181828136
:1052A00093810E946C68DC01CB01F80191838083BB
:1052B000CE018D549F4F9E0121553F4FF901208112
:1052C0003181FC0131832083CE018D549F4FFC013D
:1052D000808191818C01C8010197F1F78C01CE0189
:1052E0008D549F4FFC011183008385E590E00E945F
:1052F0007D0F9E012B543F4F80E090E0A8ECB2E47C
:10530000F90180839183A283B3838E0107541F4FD9
:10531000CE018B549F4FFC0160817181828193810A
:1053200026E636E646E655E40E944E69DC01CB01EE
:10533000F80180839183A283B383CE0187549F4F6A
:1053400011E0FC01608171818281938120E030E075
:1053500040E85FE30E94006888230CF010E011230E
:1053600049F0CE0183549F4F21E030E0FC013183AE
:10537000208374C0CE0187549F4F11E0FC016081EF
:1053800071818281938120E03FEF4FE757E40E94D3
:105390004A6918160CF010E0112309F44DC0CE0133
:1053A0008B549F4FFC01608171818281938120E049
:1053B00030E040E251E40E944E69DC01CB018E01F5
:1053C00003541F4FBC01CD010E946C68DC01CB016E
:1053D000F8019183808327C0CE0181549F4F20E73D
:1053E00031E0FC0131832083CE0181549F4FFC01C9
:1053F000808191818C01C8010197F1F78C01CE0168
:1054000081549F4FFC0111830083CE0183549F4F31
:105410009E0123543F4FF9012081318121503040BA
:10542000FC0131832083CE0183549F4FFC01808196
:105430009181009789F62FC08E0103541F4FCE0132
:1054400087549F4FFC0160817181828193810E940A
:105450006C68DC01CB01F80191838083CE018F530E
:105460009F4F9E0123543F4FF90120813181FC0160
:1054700031832083CE018F539F4FFC018081918126
:105480008C01C8010197F1F78C01CE018F539F4F1A
:10549000FC01118300830E94F4100C941A3B8B8151
:1054A0009C818630910509F0E3C08091A60490911B
:1054B000A70401969093A7048093A60486E090E049
:1054C0009C838B839E012D533F4F80E090E0A8EC9E
:1054D000B2E4F90180839183A283B3838E010953DF
:1054E0001F4FCE018D539F4FFC01608171818281DE
:1054F000938126E636E646E655E40E944E69DC01D5
:10550000CB01F80180839183A283B383CE018953B9
:105510009F4F11E0FC01608171818281938120E0C5
:1055200030E040E85FE30E94006888230CF010E060
:10553000112349F0CE0185539F4F21E030E0FC015B
:105540003183208374C0CE0189539F4F11E0FC0149
:10555000608171818281938120E03FEF4FE757E4C2
:105560000E944A6918160CF010E0112309F44DC08E
:10557000CE018D539F4FFC016081718182819381A7
:1055800020E030E040E251E40E944E69DC01CB01B2
:105590008E0105531F4FBC01CD010E946C68DC01D8
:1055A000CB01F8019183808327C0CE0183539F4FA5
:1055B00020E731E0FC0131832083CE0183539F4FEC
:1055C000FC01808191818C01C8010197F1F78C0168
:1055D000CE0183539F4FFC0111830083CE0185537D
:1055E0009F4F9E0125533F4FF9012081318121506A
:1055F0003040FC0131832083CE0185539F4FFC0155
:1056000080819181009789F62FC08E0105531F4F2D
:10561000CE0189539F4FFC0160817181828193810A
:105620000E946C68DC01CB01F80191838083CE017C
:1056300081539F4F9E0125533F4FF90120813181B6
:10564000FC0131832083CE0181539F4FFC01808177
:1056500091818C01C8010197F1F78C01CE01815332
:105660009F4FFC01118300830E94F4100C941A3B9D
:105670008B819C818530910509F0B9C18091A60488
:105680009091A70401969093A7048093A60486E0C6
:1056900090E09C838B839E012F523F4F80E090E0EF
:1056A000AAEFB3E4F90180839183A283B3838E01CF
:1056B0000B521F4FCE018F529F4FFC0160817181B1
:1056C0008281938126E636E646E655E40E944E69DD
:1056D000DC01CB01F80180839183A283B383CE01E7
:1056E0008B529F4F11E0FC01608171818281938117
:1056F00020E030E040E85FE30E94006888230CF07F
:1057000010E0112349F0CE0187529F4F21E030E095
:10571000FC013183208374C0CE018B529F4F11E076
:10572000FC01608171818281938120E03FEF4FE72E
:1057300057E40E944A6918160CF010E0112309F48E
:105740004DC0CE018F529F4FFC01608171818281DB
:10575000938120E030E040E251E40E944E69DC0198
:10576000CB018E0107521F4FBC01CD010E946C6816
:10577000DC01CB01F8019183808327C0CE018552E3
:105780009F4F20E731E0FC0131832083CE01855219
:105790009F4FFC01808191818C01C8010197F1F735
:1057A0008C01CE0185529F4FFC0111830083CE01F5
:1057B00087529F4F9E0127523F4FF901208131812F
:1057C00021503040FC0131832083CE0187529F4F0E
:1057D000FC0180819181009789F62FC08E010752CC
:1057E0001F4FCE018B529F4FFC01608171818281DE
:1057F00093810E946C68DC01CB01F8019183808366
:10580000CE0183529F4F9E0127523F4FF9012081C5
:105810003181FC0131832083CE0183529F4FFC01F3
:10582000808191818C01C8010197F1F78C01CE0133
:1058300083529F4FFC011183008385E590E00E9415
:105840006A0F9E0121523F4F80E090E0A8ECB2E445
:10585000F90180839183A283B3838E010D511F4F81
:10586000CE0181529F4FFC016081718182819381C1
:1058700026E636E646E655E40E944E69DC01CB0199
:10588000F80180839183A283B383CE018D519F4F12
:1058900011E0FC01608171818281938120E030E020
:1058A00040E85FE30E94006888230CF010E01123B9
:1058B00049F0CE0189519F4F21E030E0FC01318356
:1058C000208374C0CE018D519F4F11E0FC01608197
:1058D00071818281938120E03FEF4FE757E40E947E
:1058E0004A6918160CF010E0112309F44DC0CE01DE
:1058F00081529F4FFC01608171818281938120E000
:1059000030E040E251E40E944E69DC01CB018E019F
:1059100009511F4FBC01CD010E946C68DC01CB0115
:10592000F8019183808327C0CE0187519F4F20E7E4
:1059300031E0FC0131832083CE0187519F4FFC0170
:10594000808191818C01C8010197F1F78C01CE0112
:1059500087519F4FFC0111830083CE0189519F4FD6
:105960009E0129513F4FF901208131812150304062
:10597000FC0131832083CE0189519F4FFC0180813E
:105980009181009789F62FC08E0109511F4FCE01DA
:105990008D519F4FFC0160817181828193810E94B2
:1059A0006C68DC01CB01F80191838083CE018551C5
:1059B0009F4F9E0129513F4FF90120813181FC0108
:1059C00031832083CE0185519F4FFC0180819181DD
:1059D0008C01C8010197F1F78C01CE0185519F4FD1
:1059E000FC01118300830E94F4100C941A3B8B81FC
:1059F0009C818730910511F00C941A3B8091A6048C
:105A00009091A70401969093A7048093A60486E042
:105A100090E09C838B839E0123513F4F80E090E078
:105A2000AAEFB3E4F90180839183A283B3838E014B
:105A30000F501F4FCE0183519F4FFC016081718138
:105A40008281938126E636E646E655E40E944E6959
:105A5000DC01CB01F80180839183A283B383CE0163
:105A60008F509F4F11E0FC01608171818281938191
:105A700020E030E040E85FE30E94006888230CF0FB
:105A800010E0112349F0CE018B509F4F21E030E010
:105A9000FC013183208374C0CE018F509F4F11E0F1
:105AA000FC01608171818281938120E03FEF4FE7AB
:105AB00057E40E944A6918160CF010E0112309F40B
:105AC0004DC0CE0183519F4FFC0160817181828165
:105AD000938120E030E040E251E40E944E69DC0115
