:100000000C9472000C9493000C9493000C94930045
:100010000C9493000C940A0E0C94DF0D0C94930036
:100020000C9493000C9493000C9493000C94930004
:100030000C9493000C9493000C9493000C949300F4
:100040000C9493000C9493000C9493000C949300E4
:100050000C9493000C9493000C9493000C949300D4
:100060000C9493000C9493000C9493000C949300C4
:100070000C9493000C9493000C9493000C949300B4
:100080000C9493000C9493000C9493000C949300A4
:100090000C9493000C9493000C9493000C94930094
:1000A0000C9493000C9493000C9493000C94930084
:1000B0000C9493000C9493000C9493000C94930074
:1000C0000C9493000C9493000C9493000C94930064
:1000D0000C9493000C9493000C9493000C94930054
:1000E0000C94930011241FBECFEFD1E2DEBFCDBF31
:1000F00000E00CBF14E0A0E0B2E0E0E3FCE600E0CA
:100100000BBF02C007900D92A637B107D9F714E0D4
:10011000A6E7B4E001C01D92A539B107E1F70E943E
:1001200058100C9416360C9400000F931F93CF9325
:10013000DF93CDB7DEB7C057D0400FB6F894DEBF1F
:100140000FBECDBF80E090E0A0E8BFE389839A8333
:10015000AB83BC8369817A818B819C8126E636E6FC
:1001600046E655E40E949F35DC01CB018D839E83DA
:10017000AF83B88711E06D817E818F81988520E003
:1001800030E040E85FE30E94513488230CF010E037
:10019000112329F081E090E09A87898746C011E019
:1001A0006D817E818F81988520E03FEF4FE757E496
:1001B0000E949B3518160CF010E0112361F1698143
:1001C0007A818B819C8120E030E040E251E40E9402
:1001D0009F35DC01CB01BC01CD010E94BD34DC01A7
:1001E000CB019A87898712C080E791E09C878B8733
:1001F0008B859C858C01C8010197F1F78C011C87C8
:100200000B8789859A8501979A87898789859A8539
:10021000009751F717C06D817E818F8198850E946C
:10022000BD34DC01CB019A87898789859A859E87B1
:100230008D878D859E858C01F8013197F1F78F01AF
:100240001E870D8788E290E028E230E0F9012081E6
:100250002E7FFC01208388E290E028E230E0F90163
:1002600020812D7FFC01208388E290E020E3FC01C7
:10027000208388E290E028E230E0F90120812460C8
:10028000FC01208380E090E0A0EAB0E48F87988BA7
:10029000A98BBA8B6F85788989899A8926E636E693
:1002A00046E655E40E949F35DC01CB018B8B9C8B8D
:1002B000AD8BBE8B11E06B897C898D899E8920E096
:1002C00030E040E85FE30E94513488230CF010E0F6
:1002D000112329F081E090E0988F8F8B46C011E0C8
:1002E0006B897C898D899E8920E03FEF4FE757E439
:1002F0000E949B3518160CF010E0112361F16F85F8
:10030000788989899A8920E030E040E251E40E94AE
:100310009F35DC01CB01BC01CD010E94BD34DC0165
:10032000CB01988F8F8B12C080E791E09A8F898FD5
:10033000898D9A8D8C01C8010197F1F78C011A8F74
:10034000098F8F89988D0197988F8F8B8F89988DC2
:10035000009751F717C06B897C898D899E890E940F
:10036000BD34DC01CB01988F8F8B8F89988D9C8F4A
:100370008B8F8B8D9C8D8C01F8013197F1F78F015C
:100380001C8F0B8F88E290E028E230E0F901208199
:100390002B7FFC01208380E090E0A0E8BFE38D8FFD
:1003A0009E8FAF8FB8A36D8D7E8D8F8D98A126E621
:1003B00036E646E655E40E949F35DC01CB0189A371
:1003C0009AA3ABA3BCA311E069A17AA18BA19CA1C4
:1003D00020E030E040E85FE30E94513488230CF0D5
:1003E00010E0112329F081E090E09EA38DA346C088
:1003F00011E069A17AA18BA19CA120E03FEF4FE71A
:1004000057E40E949B3518160CF010E0112361F19F
:100410006D8D7E8D8F8D98A120E030E040E251E41B
:100420000E949F35DC01CB01BC01CD010E94BD348F
:10043000DC01CB019EA38DA312C080E791E098A7B9
:100440008FA38FA198A58C01C8010197F1F78C01AA
:1004500018A70FA38DA19EA101979EA38DA38DA187
:100460009EA1009751F717C069A17AA18BA19CA109
:100470000E94BD34DC01CB019EA38DA38DA19EA162
:100480009AA789A789A59AA58C01F8013197F1F758
:100490008F011AA709A788E290E028E230E0F9016D
:1004A00020812E7FFC01208388E290E028E230E06A
:1004B000F90120812D7FFC01208388E290E020E378
:1004C000FC01208388E290E028E230E0F9012081FD
:1004D0002460FC01208380E090E0A0EAB0E48BA7D8
:1004E0009CA7ADA7BEA76BA57CA58DA59EA526E65E
:1004F00036E646E655E40E949F35DC01CB018FA726
:1005000098ABA9ABBAAB11E06FA578A989A99AA954
:1005100020E030E040E85FE30E94513488230CF093
:1005200010E0112329F081E090E09CAB8BAB46C03A
:1005300011E06FA578A989A99AA920E03FEF4FE7BC
:1005400057E40E949B3518160CF010E0112361F15E
:100550006BA57CA58DA59EA520E030E040E251E48E
:100560000E949F35DC01CB01BC01CD010E94BD344E
:10057000DC01CB019CAB8BAB12C080E791E09EAB62
:100580008DAB8DA99EA98C01C8010197F1F78C0153
:100590001EAB0DAB8BA99CA901979CAB8BAB8BA918
:1005A0009CA9009751F717C06FA578A989A99AA9A6
:1005B0000E94BD34DC01CB019CAB8BAB8BA99CA909
:1005C00098AF8FAB8FA998AD8C01F8013197F1F7F7
:1005D0008F0118AF0FAB88E290E028E230E0F9011C
:1005E00020812B7FFC01208380E090E0A0E8BFE326
:1005F00089AF9AAFABAFBCAF69AD7AAD8BAD9CADF7
:1006000026E636E646E655E40E949F35DC01CB013E
:100610009E01235C3F4FF90180839183A283B383C2
:1006200011E0CE01CD96FC016081718182819381C0
:1006300020E030E040E85FE30E94513488230CF072
:1006400010E0112349F0CE018F5B9F4F21E030E095
:10065000FC01318320836EC011E0CE01CD96FC01F8
:10066000608171818281938120E03FEF4FE757E401
:100670000E949B3518160CF010E0112309F449C0B4
:1006800069AD7AAD8BAD9CAD20E030E040E251E445
:100690000E949F35DC01CB018E010F5B1F4FBC0117
:1006A000CD010E94BD34DC01CB01F8019183808330
:1006B00027C0CE018D5B9F4F20E731E0FC013183E5
:1006C0002083CE018D5B9F4FFC01808191818C0145
:1006D000C8010197F1F78C01CE018D5B9F4FFC01A2
:1006E00011830083CE018F5B9F4F9E012F5B3F4F95
:1006F000F9012081318121503040FC013183208378
:10070000CE018F5B9F4FFC0180819181009789F61C
:100710002EC08E010F5B1F4FCE01CD96FC01608174
:100720007181828193810E94BD34DC01CB01F8018B
:1007300091838083CE018B5B9F4F9E012F5B3F4F48
:10074000F90120813181FC0131832083CE018B5B53
:100750009F4FFC01808191818C01C8010197F1F7C5
:100760008C01CE018B5B9F4FFC011183008388E2DB
:1007700090E028E230E0F90120812E7FFC01208307
:1007800088E290E028E230E0F90120812D7FFC0131
:10079000208388E290E020E3FC01208388E290E05F
:1007A00028E230E0F90120812460FC0120839E01D1
:1007B000295B3F4F80E090E0A0EAB0E4F90180833C
:1007C0009183A283B3838E01055B1F4FCE01895BAA
:1007D0009F4FFC01608171818281938126E636E61C
:1007E00046E655E40E949F35DC01CB01F801808389
:1007F0009183A283B383CE01855B9F4F11E0FC01FF
:10080000608171818281938120E030E040E85FE384
:100810000E94513488230CF010E0112349F0CE01DE
:10082000815B9F4F21E030E0FC013183208374C065
:10083000CE01855B9F4F11E0FC0160817181828157
:10084000938120E03FEF4FE757E40E949B35181655
:100850000CF010E0112309F44DC0CE01895B9F4FCD
:10086000FC01608171818281938120E030E040E26F
:1008700051E40E949F35DC01CB018E01015B1F4FCB
:10088000BC01CD010E94BD34DC01CB01F801918394
:10089000808327C0CE018F5A9F4F20E731E0FC01B3
:1008A00031832083CE018F5A9F4FFC01808191813B
:1008B0008C01C8010197F1F78C01CE018F5A9F4F2F
:1008C000FC0111830083CE01815B9F4F9E01215B60
:1008D0003F4FF9012081318121503040FC013183AB
:1008E0002083CE01815B9F4FFC0180819181009725
:1008F00089F62FC08E01015B1F4FCE01855B9F4F94
:10090000FC0160817181828193810E94BD34DC0190
:10091000CB01F80191838083CE018D5A9F4F9E01B8
:10092000215B3F4FF90120813181FC01318320831C
:10093000CE018D5A9F4FFC01808191818C01C801AD
:100940000197F1F78C01CE018D5A9F4FFC01118365
:10095000008388E290E028E230E0F90120812B7FDB
:10096000FC0120839E012B5A3F4F80E090E0A0E8DD
:10097000BFE3F90180839183A283B3838E01075A79
:100980001F4FCE018B5A9F4FFC0160817181828184
:10099000938126E636E646E655E40E949F35DC0163
:1009A000CB01F80180839183A283B383CE01875A60
:1009B0009F4F11E0FC01608171818281938120E071
:1009C00030E040E85FE30E94513488230CF010E0EF
:1009D000112349F0CE01835A9F4F21E030E0FC0102
:1009E0003183208374C0CE01875A9F4F11E0FC01F0
:1009F000608171818281938120E03FEF4FE757E46E
:100A00000E949B3518160CF010E0112309F44DC01C
:100A1000CE018B5A9F4FFC0160817181828193814D
:100A200020E030E040E251E40E949F35DC01CB0140
:100A30008E01035A1F4FBC01CD010E94BD34DC0161
:100A4000CB01F8019183808327C0CE01815A9F4F4B
:100A500020E731E0FC0131832083CE01815A9F4F92
:100A6000FC01808191818C01C8010197F1F78C0113
:100A7000CE01815A9F4FFC0111830083CE01835A1E
:100A80009F4F9E01235A3F4FF90120813181215010
:100A90003040FC0131832083CE01835A9F4FFC01FB
:100AA00080819181009789F62FC08E01035A1F4FD4
:100AB000CE01875A9F4FFC016081718182819381B1
:100AC0000E94BD34DC01CB01F80191838083CE010B
:100AD0008F599F4F9E01235A3F4FF9012081318149
:100AE000FC0131832083CE018F599F4FFC0180810F
:100AF00091818C01C8010197F1F78C01CE018F59CA
:100B00009F4FFC011183008388E290E028E230E0EF
:100B1000F90120812E7FFC01208388E290E028E209
:100B200030E0F90120812D7FFC01208388E290E0F4
:100B300020E2FC01208388E290E028E230E0F90125
:100B400020812460FC0120839E012D593F4F80E0CD
:100B500090E0A0EAB0E4F90180839183A283B3839B
:100B60008E0109591F4FCE018D599F4FFC016081A5
:100B700071818281938126E636E646E655E40E943D
:100B80009F35DC01CB01F80180839183A283B3837D
:100B9000CE0189599F4F11E0FC01608171818281F2
:100BA000938120E030E040E85FE30E9451348823E5
:100BB0000CF010E0112349F0CE0185599F4F21E040
:100BC00030E0FC013183208374C0CE0189599F4FEE
:100BD00011E0FC01608171818281938120E03FEF0F
:100BE0004FE757E40E949B3518160CF010E01123D4
:100BF00009F44DC0CE018D599F4FFC016081718178
:100C00008281938120E030E040E251E40E949F35F0
:100C1000DC01CB018E0105591F4FBC01CD010E94A3
:100C2000BD34DC01CB01F8019183808327C0CE0164
:100C300083599F4F20E731E0FC0131832083CE01AF
:100C400083599F4FFC01808191818C01C8010197DC
:100C5000F1F78C01CE0183599F4FFC011183008372
:100C6000CE0185599F4F9E0125593F4FF9012081A3
:100C7000318121503040FC0131832083CE018559E0
:100C80009F4FFC0180819181009789F62FC08E01D2
:100C900005591F4FCE0189599F4FFC016081718119
:100CA000828193810E94BD34DC01CB01F8019183E4
:100CB0008083CE0181599F4F9E0125593F4FF901F5
:100CC00020813181FC0131832083CE0181599F4FE6
:100CD000FC01808191818C01C8010197F1F78C01A1
:100CE000CE0181599F4FFC011183008388E290E07F
:100CF00028E230E0F90120812B7FFC012083C059DC
:100D0000DF4F0FB6F894DEBF0FBECDBFDF91CF919E
:100D10001F910F9108950F931F93CF93DF93CDB73A
:100D2000DEB72E970FB6F894DEBF0FBECDBF0E9480
:100D3000950080E090E0A0E8BFE389839A83AB83CD
:100D4000BC8369817A818B819C8126E636E646E602
:100D500055E40E949F35DC01CB018D839E83AF83D8
:100D6000B88711E06D817E818F81988520E030E029
:100D700040E85FE30E94513488230CF010E0112317
:100D800029F081E090E09A87898746C011E06D8163
:100D90007E818F81988520E03FEF4FE757E40E94E6
:100DA0009B3518160CF010E0112361F169817A81EE
:100DB0008B819C8120E030E040E251E40E949F352D
:100DC000DC01CB01BC01CD010E94BD34DC01CB01B3
:100DD0009A87898712C080E791E09C878B878B85F3
:100DE0009C858C01C8010197F1F78C011C870B874A
:100DF00089859A8501979A87898789859A85009739
:100E000051F717C06D817E818F8198850E94BD3416
:100E1000DC01CB019A87898789859A859E878D8792
:100E20008D859E858C01C8010197F1F78C011E8785
:100E30000D8788E20E94330781E00E94330786E035
:100E40000E9433078EE00E94330780E80E94330738
:100E50002E960FB6F894DEBF0FBECDBFDF91CF91B7
:100E60001F910F9108950F931F93CF93DF93CDB7E9
:100E7000DEB76E970FB6F894DEBF0FBECDBF8E8F74
:100E80008E8D89838981807F898388E290E028E242
:100E900030E0F90120812F70FC01208388E290E08E
:100EA00028E230E0F90130812981232BFC012083E5
:100EB00088E290E028E230E0F90120812E7FFC01F9
:100EC000208388E290E028E230E0F90120812D7F44
:100ED000FC01208388E290E028E230E0F9012081E3
:100EE0002460FC01208380E090E0A0EAB0E48A83E3
:100EF0009B83AC83BD836A817B818C819D8126E647
:100F000036E646E655E40E949F35DC01CB018E8330
:100F10009F83A887B98711E06E817F818885998535
:100F200020E030E040E85FE30E94513488230CF079
:100F300010E0112329F081E090E09B878A8746C06A
:100F400011E06E817F818885998520E03FEF4FE732
:100F500057E40E949B3518160CF010E0112361F144
:100F60006A817B818C819D8120E030E040E251E408
:100F70000E949F35DC01CB01BC01CD010E94BD3434
:100F8000DC01CB019B878A8712C080E791E09D87B7
:100F90008C878C859D858C01C8010197F1F78C01A8
:100FA0001D870C878A859B8501979B878A878A8501
:100FB0009B85009751F717C06E817F818885998541
:100FC0000E94BD34DC01CB019B878A878A859B8583
:100FD0009F878E878E859F858C01F8013197F1F769
:100FE0008F011F870E8788E290E028E230E0F90148
:100FF00020812B7FFC0120838E8D8F708E8F8E8DB4
:101000008295807F8E8F88E290E028E230E0F901BF
:1010100020812F70FC01208388E290E028E230E0FC
:10102000F90130812E8D232BFC01208388E290E092
:1010300028E230E0F90120812E7FFC01208388E244
:1010400090E028E230E0F90120812D7FFC0120832F
:1010500088E290E028E230E0F90120812460FC0180
:10106000208380E090E0A0EAB0E4888B998BAA8B83
:10107000BB8B688979898A899B8926E636E646E6AC
:1010800055E40E949F35DC01CB018C8B9D8BAE8B90
:10109000BF8B11E06C897D898E899F8920E030E0CB
:1010A00040E85FE30E94513488230CF010E01123E4
:1010B00029F081E090E0998F888F46C011E06C891B
:1010C0007D898E899F8920E03FEF4FE757E40E949A
:1010D0009B3518160CF010E0112361F168897989AD
:1010E0008A899B8920E030E040E251E40E949F35EC
:1010F000DC01CB01BC01CD010E94BD34DC01CB0180
:10110000998F888F12C080E791E09B8F8A8F8A8D9C
:101110009B8D8C01C8010197F1F78C011B8F0A8F01
:10112000888D998D0197998F888F888D998D0097DB
:1011300051F717C06C897D898E899F890E94BD34C3
:10114000DC01CB01998F888F888D998D9D8F8C8F35
:101150008C8D9D8D8C01F8013197F1F78F011D8FDA
:101160000C8F88E290E028E230E0F90120812B7FAB
:10117000FC0120836E960FB6F894DEBF0FBECDBF84
:10118000DF91CF911F910F9108950F931F93CF93EC
:10119000DF93CDB7DEB76E970FB6F894DEBF0FBE04
:1011A000CDBF8E8F8E8D89838981807F898388E2F0
:1011B00090E028E230E0F90120812F70FC012083CB
:1011C00088E290E028E230E0F90130812981232B88
:1011D000FC01208388E290E028E230E0F9012081E0
:1011E0002160FC01208388E290E028E230E0F901F0
:1011F00020812D7FFC01208388E290E028E230E00E
:10120000F90120812460FC01208380E090E0A0EAC5
:10121000B0E48A839B83AC83BD836A817B818C81AC
:101220009D8126E636E646E655E40E949F35DC01C0
:10123000CB018E839F83A887B98711E06E817F8160
:101240008885998520E030E040E85FE30E945134D2
:1012500088230CF010E0112329F081E090E09B87B7
:101260008A8746C011E06E817F818885998520E05C
:101270003FEF4FE757E40E949B3518160CF010E043
:10128000112361F16A817B818C819D8120E030E0B6
:1012900040E251E40E949F35DC01CB01BC01CD014D
:1012A0000E94BD34DC01CB019B878A8712C080E796
:1012B00091E09D878C878C859D858C01C801019765
:1012C000F1F78C011D870C878A859B8501979B8789
:1012D0008A878A859B85009751F717C06E817F8129
:1012E000888599850E94BD34DC01CB019B878A8764
:1012F0008A859B859F878E878E859F858C01F801C7
:101300003197F1F78F011F870E8788E290E028E27E
:1013100030E0F90120812B7FFC0120838E8D8F70BE
:101320008E8F8E8D8295807F8E8F88E290E028E26E
:1013300030E0F90120812F70FC01208388E290E0E9
:1013400028E230E0F90130812E8D232BFC0120832F
:1013500088E290E028E230E0F90120812160FC0180
:10136000208388E290E028E230E0F90120812D7F9F
:10137000FC01208388E290E028E230E0F90120813E
:101380002460FC01208380E090E0A0EAB0E4888B38
:10139000998BAA8BBB8B688979898A899B8926E678
:1013A00036E646E655E40E949F35DC01CB018C8B86
:1013B0009D8BAE8BBF8B11E06C897D898E899F8957
:1013C00020E030E040E85FE30E94513488230CF0D5
:1013D00010E0112329F081E090E0998F888F46C0BA
:1013E00011E06C897D898E899F8920E03FEF4FE76E
:1013F00057E40E949B3518160CF010E0112361F1A0
:10140000688979898A899B8920E030E040E251E44B
:101410000E949F35DC01CB01BC01CD010E94BD348F
:10142000DC01CB01998F888F12C080E791E09B8F00
:101430008A8F8A8D9B8D8C01C8010197F1F78C01F1
:101440001B8F0A8F888D998D0197998F888F888D32
:10145000998D009751F717C06C897D898E899F8976
:101460000E94BD34DC01CB01998F888F888D998DC6
:101470009D8F8C8F8C8D9D8D8C01F8013197F1F7AC
:101480008F011D8F0C8F88E290E028E230E0F90197
:1014900020812B7FFC0120836E960FB6F894DEBF6F
:1014A0000FBECDBFDF91CF911F910F910895CF93C4
:1014B000DF93CDB7DEB780E80E943307DF91CF918D
:1014C0000895CF93DF930F920F92CDB7DEB79A8333
:1014D00089830BC089819A81FC0180810E94C508A3
:1014E00089819A8101969A83898389819A81FC01F5
:1014F0008081882379F70F900F90DF91CF91089525
:10150000CF93DF930F920F92CDB7DEB789836A83B3
:101510008981882F90E08230910599F08330910580
:1015200024F48130910541F01BC08330910571F0A6
:101530008430910581F014C08A8181580E9433075C
:1015400010C08A8181540E9433070BC08A818D5656
:101550000E94330706C08A818D520E94330701C062
:1015600000000F900F90DF91CF910895CF93DF93FC
:10157000CDB7DEB727970FB6F894DEBF0FBECDBF4D
:101580008A836B835D834C833F832E8319828A8198
:10159000882319F08B81882319F40E94570A04C00C
:1015A0008A816B810E94800A8E819F81853091059E
:1015B00019F089818130B1F48C819D8120E137E27D
:1015C000B9010E9402369B01C901C096909385041F
:1015D0008093840480918404909185040E94C508BE
:1015E00081E089838E819F818430910519F0898102
:1015F000813019F58C819D8128EE33E0B9010E947C
:1016000002369B01C90190938704809386048091E0
:101610008604909187042AE030E0B9010E940236E6
:10162000C096909394048093930480919304909136
:1016300094040E94C50881E089838E819F81833054
:10164000910519F08981813019F58C819D8124E6FD
:1016500030E0B9010E9402369B01C90190938704D2
:101660008093860480918604909187042AE030E07C
:10167000B9010E940236C0969093900480938F0423
:1016800080918F04909190040E94C50881E0898325
:101690008E819F818230910519F08981813019F501
:1016A0008C819D812AE030E0B9010E9402369B01C5
:1016B000C901909387048093860480918604909159
:1016C00087042AE030E0B9010E940236C096909368
:1016D0008E0480938D0480918D0490918E040E94DD
:1016E000C50881E089838E819F818130910519F041
:1016F0008981813091F48C819D812AE030E0B901AB
:101700000E940236C0969093920480939104809137
:101710009104909192040E94C5088E819F81863029
:1017200091051CF085E40E94C50827960FB6F89431
:10173000DEBF0FBECDBFDF91CF910895CF93DF9372
:10174000CDB7DEB787E290E027E230E0F9012081F3
:10175000276FFC01208388E290E028E230E0F90165
:1017600020812078FC012083DF91CF910895CF93D1
:10177000DF93CDB7DEB780E390E0FC01108281E318
:1017800090E0FC01108287E091E0FC01108288E08B
:1017900091E0FC011082DF91CF910895CF93DF9308
:1017A000CDB7DEB787E290E027E230E0F901208193
:1017B0002860FC01208388E290E028E230E0F90113
:1017C0002081277FFC012083DF91CF910895CF9363
:1017D000DF93CDB7DEB78DE290E02DE230E0F90186
:1017E00020812F7EFC0120838EE290E02EE230E00B
:1017F000F90120812061FC012083DF91CF910895C0
:10180000CF93DF93CDB7DEB78DE290E02DE230E0ED
:10181000F90120812F7DFC0120838EE290E02EE2F1
:1018200030E0F90120812062FC012083DF91CF911B
:101830000895CF93DF93CDB7DEB781E290E021E248
:1018400030E0F90120812F60FC01208382E290E0EA
:1018500022E230E0F9012081207FFC0120838AE030
:1018600091E02AE031E0F90120812861FC01208328
:101870008BE091E02BE031E0F90120812861FC014F
:101880002083DF91CF910895CF93DF93CDB7DEB75B
:101890000E949E0B0E94B70B0E94190C0E94CE0B57
:1018A0000E94E70B0E94000CDF91CF910895CF9327
:1018B000DF93CDB7DEB781E291E0FC01108285E2D3
:1018C00091E02FEFFC01208384E291E021E0FC0114
:1018D000208389E291E0FC01108288E291E02FEF01
:1018E000FC0120838BE291E0FC0110828AE291E00E
:1018F0002FEFFC0120838DE291E0FC0110828CE24D
:1019000091E02FEFFC01208380E291E029EAFC01C5
:10191000208381E291E02BE0FC012083DF91CF91D5
:101920000895CF93DF93CDB7DEB78AE790E0FC014F
:1019300010828BE790E0FC0110828CE790E020E2BF
:10194000FC01208380E590E020E8FC0120838AE709
:1019500090E026E8FC012083DF91CF910895CF939A
:10196000DF930F920F92CDB7DEB78A838A818830DA
:1019700028F08BE790E028E0FC0120838A818770C3
:101980008A838CE790E02A812062FC0120838AE729
:1019900090E02AE730E0F90120812064FC012083F7
:1019A00000008AE790E0FC018081882F90E0807140
:1019B00090700097B1F389E790E0FC018081898302
:1019C0008AE790E02AE730E0F90120812061FC01FC
:1019D00020838BE790E0FC01108289810F900F90AB
:1019E000DF91CF910895CF93DF930F92CDB7DEB7FC
:1019F000198286E290E0FC01808189838981886078
:101A0000898388E290E02981FC0120830F90DF9197
:101A1000CF910895CF93DF930F92CDB7DEB71982A0
:101A200086E290E0FC01808189838981877F8983B8
:101A300088E290E02981FC0120830F90DF91CF9113
:101A40000895CF93DF9300D0CDB7DEB789836A8343
:101A50004B838B810E94AF0C809388048091880413
:101A6000282F30E089816A81A90123E030E00E94BB
:101A7000B60A0F900F900F90DF91CF910895CF93FA
:101A8000DF930F920F92CDB7DEB789836A8388E226
:101A900091E02981FC0120838AE291E02A81FC0106
:101AA00020830F900F90DF91CF910895CF93DF9314
:101AB0000F920F92CDB7DEB78A8319828A818F7019
:101AC0008A8382E290E0FC01808189838981807F22
:101AD000898399818A81892B898382E290E0298197
:101AE000FC0120830F900F90DF91CF910895CF9349
:101AF000DF93CDB7DEB786E00E94560DDF91CF9120
:101B00000895CF93DF93CDB7DEB782E00E94560DE4
:101B1000DF91CF910895CF93DF93CDB7DEB78AE001
:101B20000E94560DDF91CF910895CF93DF93CDB7EB
:101B3000DEB785E00E94560DDF91CF910895CF93D7
:101B4000DF93CDB7DEB780E00E94560DDF91CF91D5
:101B50000895CF93DF93CDB7DEB7F8948AE690E08F
:101B60002AE630E0F90120812260FC0120838DE328
:101B700090E02DE330E0F90120812061FC01208319
:101B80007894DF91CF910895CF93DF93CDB7DEB7EF
:101B9000F8948AE690E02AE630E0F9012081286096
:101BA000FC0120838DE390E02DE330E0F9012081FA
:101BB0002062FC0120837894DF91CF9108951F92D9
:101BC0000F920FB60F9211248F939F93AF93BF93F1
:101BD000CF93DF93CDB7DEB780917A0490917B04E9
:101BE000A0917C04B0917D040196A11DB11D80934C
:101BF0007A0490937B04A0937C04B0937D04DF91DE
:101C0000CF91BF91AF919F918F910F900FBE0F9089
:101C10001F9018951F920F920FB60F9211248F9359
:101C20009F93AF93BF93CF93DF93CDB7DEB78091F0
:101C3000760490917704A0917804B091790401968C
:101C4000A11DB11D8093760490937704A09378042E
:101C5000B0937904DF91CF91BF91AF919F918F9114
:101C60000F900FBE0F901F901895CF93DF93CDB7B5
:101C7000DEB72A970FB6F894DEBF0FBECDBF9A87A6
:101C8000898780E090E0DC0189839A83AB83BC8301
:101C90001D821E821F82188689859A85CC01A0E04C
:101CA000B0E0BC01CD010E94E934DC01CB01BC01F4
:101CB000CD0128E431EE42E850E40E945534DC01C5
:101CC000CB0189839A83AB83BC8369817A818B81C1
:101CD0009C810E94BD34DC01CB01CC01A0E0B0E0CE
:101CE0008D839E83AF83B88710927A0410927B0411
:101CF00010927C0410927D04109276041092770466
:101D0000109278041092790401C0000020917A04A6
:101D100030917B0440917C0450917D0471E08D8171
:101D20009E81AF81B885281739074A075B0708F4F9
:101D300070E02091760430917704409178045091BE
:101D4000790461E08D819E81AF81B88528173907BC
:101D50004A075B0708F460E0872F862B8823A9F2E7
:101D600000000E949F0D2A960FB6F894DEBF0FBEAA
:101D7000CDBFDF91CF910895CF93DF930F920F9254
:101D8000CDB7DEB79A8389830E94950D89819A81A8
:101D90000E94350E0F900F90DF91CF910895CF9351
:101DA000DF930F920F92CDB7DEB79A8389830E949B
:101DB0008B0D89819A810E94350E0F900F90DF91D3
:101DC000CF910895CF93DF93CDB7DEB72A970FB6A3
:101DD000F894DEBF0FBECDBF9A87898780E090E080
:101DE000DC0189839A83AB83BC831D821E821F82A0
:101DF000188689859A85CC01A0E0B0E0BC01CD01B0
:101E00000E94E934DC01CB01BC01CD0125EE30EDAF
:101E10004AEA50E40E945534DC01CB0189839A835D
:101E2000AB83BC8369817A818B819C810E94BD34A4
:101E3000DC01CB018D839E83AF83B88710927A0437
:101E400010927B0410927C0410927D0401C000006B
:101E500020917A0430917B0440917C0450917D0460
:101E60008D819E81AF81B88582179307A407B5073E
:101E700070F700000E949F0D2A960FB6F894DEBFFF
:101E80000FBECDBFDF91CF910895CF93DF930F9217
:101E90000F92CDB7DEB79A8389830E94770D89812F
:101EA0009A810E94E20E0F900F90DF91CF910895DA
:101EB000CF93DF93CDB7DEB7F8940E94440C0E9415
:101EC000910C0E94570C0E94A90D0E94C40D789499
:101ED000DF91CF910895CF93DF93CDB7DEB783E045
:101EE0000E94AF0C80937F0482E00E94AF0C80932D
:101EF000800481E00E94AF0C80938104DF91CF9138
:101F00000895CF93DF9300D00F92CDB7DEB79A83B9
:101F100089837C836B830E948B0689819A819923B4
:101F20004CF029813A8181E061E0A90121E030E0B3
:101F30000E94B60A89819A819923C4F481E061E004
:101F40000E94800A80E092E00E94610A89819A8161
:101F5000909581959F4F9A83898329813A8181E069
:101F600062E0A90121E030E00E94B60A8B819C81E9
:101F700099234CF02B813C8181E064E0A90121E0B0
:101F800030E00E94B60A8B819C819923C4F481E0E1
:101F900064E00E94800A80E092E00E94610A8B81E6
:101FA0009C81909581959F4F9C838B832B813C8155
:101FB00081E065E0A90121E030E00E94B60A0F90BF
:101FC0000F900F900F90DF91CF910895CF93DF93F3
:101FD000CDB7DEB701C000000E946B0F10927E04E7
:101FE00080918004813148F081E080937E040E94DA
:101FF000770D8CE86CE80E943F0D80917F04813161
:1020000068F080917E04882349F481E080937E0407
:102010000E94770D82E362E80E943F0D8091810467
:10202000813168F080917E04882349F481E08093B7
:102030007E040E94770D82E862E30E943F0D80914A
:102040008004803170F480917F04803150F480915D
:102050008104803130F40E94770D8CE86CE80E9496
:102060003F0D80918004813120F080917F04813187
:1020700050F480918004813108F4ADCF80918104C7
:10208000813108F4A8CF80E590E00E94450F0E94BE
:102090009F0D8091890490918A0420918B04309146
:1020A0008C04B9010E94810F0000DF91CF91089547
:1020B0000F931F93CF93DF93CDB7DEB7C25BD440AE
:1020C0000FB6F894DEBF0FBECDBF0E94580F0E941E
:1020D0009500CE01835D9D4F24E032E040ECF90194
:1020E00000802F5F3F4FFC01008201964150442346
:1020F000B1F7CE0183519D4F9C0144EC52E080E842
:1021000091E0FA0100804F5F5F4FF90100822F5F7D
:102110003F4F01970097A9F78EEF9FEF90938A04A6
:102120008093890482E090E090938C0480938B04E8
:1021300081E090E09A8389830E946B0F80918004F4
:10214000813120F080917F04813140F480918004BE
:10215000813158F080918104813138F00E94770DEF
:102160008CE86CE80E943F0DE7CF0E94E60F86E006
:1021700090E09C838B83CE0183599B4F24E434E011
:1021800048E1F90100802F5F3F4FFC01008201967A
:1021900041504423B1F7CE018B579B4F2CE534E0DF
:1021A00048E0F90100802F5F3F4FFC01008201965B
:1021B00041504423B1F7CE0183579B4F24E634E0CE
:1021C00042E1F90100802F5F3F4FFC010082019640
:1021D00041504423B1F718861F821A8619869E0142
:1021E00023573B4F8F819885880F991F820F931F2C
:1021F000FC01808191819C878B8789819A81817084
:102200009070882309F422C11E8A1D8A29C09E016C
:1022100023593B4F8D899E89880F991F820F931FE9
:10222000FC01208131818B859C852817390799F421
:102230008D899E899E838D839E0123593B4F8D8975
:102240009E89880F991F820F931F2FEF3FEFFC018C
:10225000318320830AC08D899E8901969E8B8D8B48
:102260008D899E898C30910594F2188E1F8A70C0DA
:102270002091890430918A04AE01435D5D4F8D81C8
:102280009E81BC01660F771F660F771F8F89988D1F
:10229000860F971F880F991F880F991F840F951F0E
:1022A000FC0180819181A901481B590BCA019E87BD
:1022B0008D8720918B0430918C04AE01435D5D4F7E
:1022C0008D819E81BC01660F771F660F771F8F89F6
:1022D000988D860F971F880F991F880F991F840F5D
:1022E000951F0296FC0180819181A901481B590B21
:1022F000CA01988B8F878D859E8599233CF48D85A7
:102300009E85909581959F4F9E878D878F85988913
:1023100099233CF48F859889909581959F4F988B50
:102320008F872D853E858F859889280F391FAE01AF
:102330004D555B4F8F89988D880F991F840F951F7E
:10234000FC01318320838F89988D0196988F8F8B24
:102350008F89988D843091050CF48ACFCE018D55EC
:102360009B4FFC01808191819A8B898B1C8A1B8AEF
:1023700081E090E09A8F898F28C09E012D553B4FB8
:10238000898D9A8D880F991F820F931FFC012081E0
:10239000318189899A892817390794F49E012D552E
:1023A0003B4F898D9A8D880F991F820F931FFC01D7
:1023B000808191819A8B898B898D9A8D9C8B8B8B57
:1023C000898D9A8D01969A8F898F898D9A8D843007
:1023D00091059CF29E01235D3D4F8D819E81AC0154
:1023E000440F551F440F551F8B899C89840F951FDF
:1023F000880F991F880F991F820F931FFC0120815E
:102400003181CE0181569B4FFC01318320839E0197
:10241000235D3D4F8D819E81AC01440F551F440FBC
:10242000551F8B899C89840F951F880F991F880FD2
:10243000991F820F931F0296FC0120813181CE01EA
:1024400081569B4FFC0133832283F9C089819A8195
:1024500081709070009709F0F2C01CA21BA270C09E
:102460002091890430918A04AE0143515D4F8D81E2
:102470009E81BC01660F771F660F771F8BA19CA101
:10248000860F971F880F991F880F991F840F951F1C
:10249000FC0180819181A901481B590BCA019C8FC5
:1024A0008B8F20918B0430918C04AE0143515D4F92
:1024B0008D819E81BC01660F771F660F771F8BA1F0
:1024C0009CA1860F971F880F991F880F991F840F53
:1024D000951F0296FC0180819181A901481B590B2F
:1024E000CA019E8F8D8F8B8D9C8D99233CF48B8D93
:1024F0009C8D909581959F4F9C8F8B8F8D8D9E8D00
:1025000099233CF48D8D9E8D909581959F4F9E8F44
:102510008D8F2B8D3C8D8D8D9E8D280F391FAE019B
:1025200045555B4F8BA19CA1880F991F840F951F68
:10253000FC01318320838BA19CA101969CA38BA3DA
:102540008BA19CA1843091050CF48ACFCE018555D6
:102550009B4FFC018081918198A38F8F1AA219A2B1
:1025600081E090E09EA38DA328C09E0125553B4F9E
:102570008DA19EA1880F991F820F931FFC012081BE
:1025800031818F8D98A12817390794F49E01255524
:102590003B4F8DA19EA1880F991F820F931FFC01B5
:1025A0008081918198A38F8F8DA19EA19AA389A3E9
:1025B0008DA19EA101969EA38DA38DA19EA1843085
:1025C00091059CF29E0123513D4F8D819E81AC016E
:1025D000440F551F440F551F89A19AA1840F951FC1
:1025E000880F991F880F991F820F931FFC0120816C
:1025F0003181CE0181569B4FFC01318320839E01A6
:1026000023513D4F8D819E81AC01440F551F440FD6
:10261000551F89A19AA1840F951F880F991F880FB4
:10262000991F820F931F0296FC0120813181CE01F8
:1026300081569B4FFC013383228301C00000CE01F1
:1026400081569B4FFC012281338180918B049091B4
:102650008C04821793070CF092C58B819C81843087
:10266000910509F090C080918B0490918C040196A3
:1026700090938C0480938B0484E090E09C838B8304
:1026800080E090E0A8ECB2E48FA398A7A9A7BAA72E
:102690006FA178A589A59AA526E636E646E655E413
:1026A0000E949F35DC01CB018BA79CA7ADA7BEA7DD
:1026B00011E06BA57CA58DA59EA520E030E040E84B
:1026C0005FE30E94513488230CF010E0112329F0BD
:1026D00081E090E098AB8FA746C011E06BA57CA588
:1026E0008DA59EA520E03FEF4FE757E40E949B3564
:1026F00018160CF010E0112361F16FA178A589A5DF
:102700009AA520E030E040E251E40E949F35DC01D0
:10271000CB01BC01CD010E94BD34DC01CB0198ABE3
:102720008FA712C080E791E09AAB89AB89A99AA9DB
:102730008C01C8010197F1F78C011AAB09AB8FA589
:1027400098A9019798AB8FA78FA598A9009751F7E3
:1027500017C06BA57CA58DA59EA50E94BD34DC018C
:10276000CB0198AB8FA78FA598A99CAB8BAB8BA9FE
:102770009CA98C01F8013197F1F78F011CAB0BABD1
:102780000E94E60FFCC48B819C818630910509F084
:102790007BC180918B0490918C04019690938C0462
:1027A00080938B0484E090E09C838B8380E090E0B6
:1027B000AAEFB3E48DAB9EABAFABB8AF6DA97EA96A
:1027C0008FA998AD26E636E646E655E40E949F3589
:1027D000DC01CB0189AF9AAFABAFBCAF11E069AD03
:1027E0007AAD8BAD9CAD20E030E040E85FE30E9425
:1027F000513488230CF010E0112329F081E090E09F
:102800009EAF8DAF4FC011E069AD7AAD8BAD9CAD81
:1028100020E03FEF4FE757E40E949B3518160CF07D
:1028200010E01123A9F16DA97EA98FA998AD20E030
:1028300030E040E251E40E949F35DC01CB01BC0155
:10284000CD010E94BD34DC01CB019EAF8DAF1BC01A
:1028500020E731E0CE01CF96FC0131832083CE0109
:10286000CF96FC01808191818C01C8010197F1F71D
:102870008C01CE01CF96FC01118300838DAD9EADFE
:1028800001979EAF8DAF8DAD9EAD009709F723C028
:1028900069AD7AAD8BAD9CAD0E94BD34DC01CB013E
:1028A0009EAF8DAFCE018F5B9F4F2DAD3EADFC0136
:1028B00031832083CE018F5B9F4FFC01808191810A
:1028C0008C01C8010197F1F78C01CE018F5B9F4FFE
:1028D000FC011183008385E590E00E94BC0E9E01FF
:1028E0002D5B3F4F80E090E0A8ECB2E4F9018083DB
:1028F0009183A283B3838E01095B1F4FCE018D5B51
:102900009F4FFC01608171818281938126E636E6CA
:1029100046E655E40E949F35DC01CB01F801808337
:102920009183A283B383CE01895B9F4F11E0FC01A9
:10293000608171818281938120E030E040E85FE333
:102940000E94513488230CF010E0112349F0CE018D
:10295000855B9F4F21E030E0FC013183208374C010
:10296000CE01895B9F4F11E0FC0160817181828102
:10297000938120E03FEF4FE757E40E949B35181604
:102980000CF010E0112309F44DC0CE018D5B9F4F78
:10299000FC01608171818281938120E030E040E21E
:1029A00051E40E949F35DC01CB018E01055B1F4F76
:1029B000BC01CD010E94BD34DC01CB01F801918343
:1029C000808327C0CE01835B9F4F20E731E0FC016D
:1029D00031832083CE01835B9F4FFC0180819181F5
:1029E0008C01C8010197F1F78C01CE01835B9F4FE9
:1029F000FC0111830083CE01855B9F4F9E01255B07
:102A00003F4FF9012081318121503040FC01318359
:102A10002083CE01855B9F4FFC01808191810097CF
:102A200089F62FC08E01055B1F4FCE01895B9F4F3A
:102A3000FC0160817181828193810E94BD34DC013F
:102A4000CB01F80191838083CE01815B9F4F9E0172
:102A5000255B3F4FF90120813181FC0131832083C7
:102A6000CE01815B9F4FFC01808191818C01C80167
:102A70000197F1F78C01CE01815B9F4FFC0111831F
:102A800000830E94E60F7BC38B819C818730910578
:102A900009F0B8C180918B0490918C0401969093B9
:102AA0008C0480938B0484E090E09C838B839E0154
:102AB0002F5A3F4F80E090E0AAEFB3E4F901808302
:102AC0009183A283B3838E010B5A1F4FCE018F5A7D
:102AD0009F4FFC01608171818281938126E636E6F9
:102AE00046E655E40E949F35DC01CB01F801808366
:102AF0009183A283B383CE018B5A9F4F11E0FC01D7
:102B0000608171818281938120E030E040E85FE361
:102B10000E94513488230CF010E0112349F0CE01BB
:102B2000875A9F4F21E030E0FC013183208374C03D
:102B3000CE018B5A9F4F11E0FC016081718182812F
:102B4000938120E03FEF4FE757E40E949B35181632
:102B50000CF010E0112309F44DC0CE018F5A9F4FA5
:102B6000FC01608171818281938120E030E040E24C
:102B700051E40E949F35DC01CB018E01075A1F4FA3
:102B8000BC01CD010E94BD34DC01CB01F801918371
:102B9000808327C0CE01855A9F4F20E731E0FC019A
:102BA00031832083CE01855A9F4FFC018081918122
:102BB0008C01C8010197F1F78C01CE01855A9F4F16
:102BC000FC0111830083CE01875A9F4F9E01275A33
:102BD0003F4FF9012081318121503040FC01318388
:102BE0002083CE01875A9F4FFC01808191810097FD
:102BF00089F62FC08E01075A1F4FCE018B5A9F4F67
:102C0000FC0160817181828193810E94BD34DC016D
:102C1000CB01F80191838083CE01835A9F4F9E019F
:102C2000275A3F4FF90120813181FC0131832083F4
:102C3000CE01835A9F4FFC01808191818C01C80194
:102C40000197F1F78C01CE01835A9F4FFC0111834C
:102C5000008385E590E00E94CF0E9E01215A3F4FF0
:102C600080E090E0A8ECB2E4F90180839183A28334
:102C7000B3838E010D591F4FCE01815A9F4FFC0126
:102C8000608171818281938126E636E646E655E4CD
:102C90000E949F35DC01CB01F80180839183A283E0
:102CA000B383CE018D599F4F11E0FC01608171818A
:102CB0008281938120E030E040E85FE30E9451345C
:102CC00088230CF010E0112349F0CE0189599F4F61
:102CD00021E030E0FC013183208374C0CE018D59A6
:102CE0009F4F11E0FC01608171818281938120E01E
:102CF0003FEF4FE757E40E949B3518160CF010E0A9
:102D0000112309F44DC0CE01815A9F4FFC0160810F
:102D100071818281938120E030E040E251E40E94A1
:102D20009F35DC01CB018E0109591F4FBC01CD013C
:102D30000E94BD34DC01CB01F8019183808327C060
:102D4000CE0187599F4F20E731E0FC01318320837A
:102D5000CE0187599F4FFC01808191818C01C80170
:102D60000197F1F78C01CE0187599F4FFC01118328
:102D70000083CE0189599F4F9E0129593F4FF90188
:102D80002081318121503040FC0131832083CE01EC
:102D900089599F4FFC0180819181009789F62FC04E
:102DA0008E0109591F4FCE018D599F4FFC01608143
:102DB0007181828193810E94BD34DC01CB01F801D5
:102DC00091838083CE0185599F4F9E0129593F4FA2
:102DD000F90120813181FC0131832083CE018559A5
:102DE0009F4FFC01808191818C01C8010197F1F70F
:102DF0008C01CE0185599F4FFC01118300830E94F5
:102E0000E60FBDC18B819C818530910509F0B7C16A
:102E100080918B0490918C04019690938C04809304
:102E20008B0484E090E09C838B839E0123593F4F69
:102E300080E090E0AAEFB3E4F90180839183A2835C
:102E4000B3838E010F581F4FCE0183599F4FFC0152
:102E5000608171818281938126E636E646E655E4FB
:102E60000E949F35DC01CB01F80180839183A2830E
:102E7000B383CE018F589F4F11E0FC0160817181B7
:102E80008281938120E030E040E85FE30E9451348A
:102E900088230CF010E0112349F0CE018B589F4F8E
:102EA00021E030E0FC013183208374C0CE018F58D3
:102EB0009F4F11E0FC01608171818281938120E04C
:102EC0003FEF4FE757E40E949B3518160CF010E0D7
:102ED000112309F44DC0CE0183599F4FFC0160813D
:102EE00071818281938120E030E040E251E40E94D0
:102EF0009F35DC01CB018E010B581F4FBC01CD016A
:102F00000E94BD34DC01CB01F8019183808327C08E
:102F1000CE0189589F4F20E731E0FC0131832083A7
:102F2000CE0189589F4FFC01808191818C01C8019D
:102F30000197F1F78C01CE0189589F4FFC01118355
:102F40000083CE018B589F4F9E012B583F4FF901B4
:102F50002081318121503040FC0131832083CE011A
:102F60008B589F4FFC0180819181009789F62FC07B
:102F70008E010B581F4FCE018F589F4FFC0160816F
:102F80007181828193810E94BD34DC01CB01F80103
:102F900091838083CE0187589F4F9E012B583F4FCE
:102FA000F90120813181FC0131832083CE018758D2
:102FB0009F4FFC01808191818C01C8010197F1F73D
:102FC0008C01CE0187589F4FFC011183008384EB55
:102FD00090E00E94CF0E9E0125583F4F80E090E088
:102FE000A8ECB2E4F90180839183A283B3838E01BC
:102FF00001581F4FCE0185589F4FFC0160817181A0
:103000008281938126E636E646E655E40E949F35A6
:10301000DC01CB01F80180839183A283B383CE01CD
:1030200081589F4F11E0FC01608171818281938101
:1030300020E030E040E85FE30E94513488230CF048
:1030400010E0112349F0CE018D579F4F21E030E071
:10305000FC013183208374C0CE0181589F4F11E061
:10306000FC01608171818281938120E03FEF4FE715
:1030700057E40E949B3518160CF010E0112309F458
:103080004DC0CE0185589F4FFC01608171818281C6
:10309000938120E030E040E251E40E949F35DC0162
:1030A000CB018E010D571F4FBC01CD010E94BD34D5
:1030B000DC01CB01F8019183808327C0CE018B57BF
:1030C0009F4F20E731E0FC0131832083CE018B57F5
:1030D0009F4FFC01808191818C01C8010197F1F71C
:1030E0008C01CE018B579F4FFC0111830083CE01D1
:1030F0008D579F4F9E012D573F4FF9012081318100
:1031000021503040FC0131832083CE018D579F4FE9
:10311000FC0180819181009789F62FC08E010D57A7
:103120001F4FCE0181589F4FFC01608171818281C8
:1031300093810E94BD34DC01CB01F801918380832F
:10314000CE0189579F4F9E012D573F4FF901208196
:103150003181FC0131832083CE0189579F4FFC01CF
:10316000808191818C01C8010197F1F78C01CE011A
:1031700089579F4FFC01118300830E94E60FCE0107
:1031800081569B4FFC012281338180918B04909169
:103190008C04281739070CF021C68B819C8186305E
:1031A000910509F0B8C180918B0490918C0401972E
:1031B00090938C0480938B0485E090E09C838B83B8
:1031C0009E0127573F4F80E090E0AAEFB3E4F9015A
:1031D00080839183A283B3838E0103571F4FCE0157
:1031E00087579F4FFC01608171818281938126E620
:1031F00036E646E655E40E949F35DC01CB01F80136
:1032000080839183A283B383CE0183579F4F11E0C4
:10321000FC01608171818281938120E030E040E88F
:103220005FE30E94513488230CF010E0112349F031
:10323000CE018F569F4F21E030E0FC013183208387
:1032400074C0CE0183579F4F11E0FC0160817181F2
:103250008281938120E03FEF4FE757E40E949B3546
:1032600018160CF010E0112309F44DC0CE01875759
:103270009F4FFC01608171818281938120E030E069
:1032800040E251E40E949F35DC01CB018E010F56D4
:103290001F4FBC01CD010E94BD34DC01CB01F80100
:1032A0009183808327C0CE018D569F4F20E731E068
:1032B000FC0131832083CE018D569F4FFC0180811C
:1032C00091818C01C8010197F1F78C01CE018D56D7
:1032D0009F4FFC0111830083CE018F569F4F9E01AB
:1032E0002F563F4FF9012081318121503040FC01A0
:1032F00031832083CE018F569F4FFC0180819181C5
:10330000009789F62FC08E010F561F4FCE018357AD
:103310009F4FFC0160817181828193810E94BD3445
:10332000DC01CB01F80191838083CE018B569F4F46
:103330009E012F563F4FF90120813181FC013183DD
:103340002083CE018B569F4FFC01808191818C019F
:10335000C8010197F1F78C01CE018B569F4FFC01FC
:103360001183008385E590E00E94CF0E9E012956CF
:103370003F4F80E090E0A8ECB2E4F90180839183B4
:10338000A283B3838E0105561F4FCE0189569F4FEE
:10339000FC01608171818281938126E636E646E6F2
:1033A00055E40E949F35DC01CB01F80180839183B5
:1033B000A283B383CE0185569F4F11E0FC0160814B
:1033C00071818281938120E030E040E85FE30E94D8
:1033D000513488230CF010E0112349F0CE018156BE
:1033E0009F4F21E030E0FC013183208374C0CE0187
:1033F00085569F4F11E0FC0160817181828193812C
:1034000020E03FEF4FE757E40E949B3518160CF081
:1034100010E0112309F44DC0CE0189569F4FFC01E5
:10342000608171818281938120E030E040E251E44B
:103430000E949F35DC01CB018E0101561F4FBC015C
:10344000CD010E94BD34DC01CB01F8019183808362
:1034500027C0CE018F559F4F20E731E0FC0131831B
:103460002083CE018F559F4FFC01808191818C017B
:10347000C8010197F1F78C01CE018F559F4FFC01D8
:1034800011830083CE0181569F4F9E0121563F4FED
:10349000F9012081318121503040FC0131832083AA
:1034A000CE0181569F4FFC0180819181009789F662
:1034B0002FC08E0101561F4FCE0185569F4FFC0134
:1034C00060817181828193810E94BD34DC01CB01D6
:1034D000F80191838083CE018D559F4F9E01215627
:1034E0003F4FF90120813181FC0131832083CE01DE
:1034F0008D559F4FFC01808191818C01C8010197FE
:10350000F1F78C01CE018D559F4FFC011183008393
:103510000E94E60F63C48B819C818730910509F07E
:10352000B8C180918B0490918C04019790938C0486
:1035300080938B0485E090E09C838B839E012B55C8
:103540003F4F80E090E0AAEFB3E4F90180839183DC
:10355000A283B3838E0107551F4FCE018B559F4F1A
:10356000FC01608171818281938126E636E646E620
:1035700055E40E949F35DC01CB01F80180839183E3
:10358000A283B383CE0187559F4F11E0FC01608178
:1035900071818281938120E030E040E85FE30E9406
:1035A000513488230CF010E0112349F0CE018355EB
:1035B0009F4F21E030E0FC013183208374C0CE01B5
:1035C00087559F4F11E0FC01608171818281938159
:1035D00020E03FEF4FE757E40E949B3518160CF0B0
:1035E00010E0112309F44DC0CE018B559F4FFC0113
:1035F000608171818281938120E030E040E251E47A
:103600000E949F35DC01CB018E0103551F4FBC0189
:10361000CD010E94BD34DC01CB01F8019183808390
:1036200027C0CE0181559F4F20E731E0FC01318357
:103630002083CE0181559F4FFC01808191818C01B7
:10364000C8010197F1F78C01CE0181559F4FFC0114
:1036500011830083CE0183559F4F9E0123553F4F19
:10366000F9012081318121503040FC0131832083D8
:10367000CE0183559F4FFC0180819181009789F68F
:103680002FC08E0103551F4FCE0187559F4FFC0160
:1036900060817181828193810E94BD34DC01CB0104
:1036A000F80191838083CE018F549F4F9E01235553
:1036B0003F4FF90120813181FC0131832083CE010C
:1036C0008F549F4FFC01808191818C01C80101972B
:1036D000F1F78C01CE018F549F4FFC0111830083C1
:1036E00085E590E00E94BC0E9E012D543F4F80E086
:1036F00090E0A8ECB2E4F90180839183A283B383C4
:103700008E0109541F4FCE018D549F4FFC016081E3
:1037100071818281938126E636E646E655E40E9471
:103720009F35DC01CB01F80180839183A283B383B1
:10373000CE0189549F4F11E0FC016081718182812B
:10374000938120E030E040E85FE30E945134882319
:103750000CF010E0112349F0CE0185549F4F21E079
:1037600030E0FC013183208374C0CE0189549F4F27
:1037700011E0FC01608171818281938120E03FEF43
:103780004FE757E40E949B3518160CF010E0112308
:1037900009F44DC0CE018D549F4FFC0160817181B1
:1037A0008281938120E030E040E251E40E949F3525
:1037B000DC01CB018E0105541F4FBC01CD010E94DD
:1037C000BD34DC01CB01F8019183808327C0CE0199
:1037D00083549F4F20E731E0FC0131832083CE01E9
:1037E00083549F4FFC01808191818C01C801019716
:1037F000F1F78C01CE0183549F4FFC0111830083AC
:10380000CE0185549F4F9E0125543F4FF9012081E1
:10381000318121503040FC0131832083CE01855419
:103820009F4FFC0180819181009789F62FC08E0106
:1038300005541F4FCE0189549F4FFC016081718157
:10384000828193810E94BD34DC01CB01F801918318
:103850008083CE0181549F4F9E0125543F4FF90133
:1038600020813181FC0131832083CE0181549F4F1F
:10387000FC01808191818C01C8010197F1F78C01D5
:10388000CE0181549F4FFC01118300830E94E60FFB
:10389000A5C28B819C818530910509F0E2C08091A1
:1038A0008B0490918C04019790938C0480938B04EB
:1038B00085E090E09C838B839E012F533F4F80E0F7
:1038C00090E0A8ECB2E4F90180839183A283B383F2
:1038D0008E010B531F4FCE018F539F4FFC01608110
:1038E00071818281938126E636E646E655E40E94A0
:1038F0009F35DC01CB01F80180839183A283B383E0
:10390000CE018B539F4F11E0FC0160817181828158
:10391000938120E030E040E85FE30E945134882347
:103920000CF010E0112349F0CE0187539F4F21E0A6
:1039300030E0FC013183208374C0CE018B539F4F54
:1039400011E0FC01608171818281938120E03FEF71
:103950004FE757E40E949B3518160CF010E0112336
:1039600009F44DC0CE018F539F4FFC0160817181DE
:103970008281938120E030E040E251E40E949F3553
:10398000DC01CB018E0107531F4FBC01CD010E940A
:10399000BD34DC01CB01F8019183808327C0CE01C7
:1039A00085539F4F20E731E0FC0131832083CE0116
:1039B00085539F4FFC01808191818C01C801019743
:1039C000F1F78C01CE0185539F4FFC0111830083D9
:1039D000CE0187539F4F9E0127533F4FF90120810E
:1039E000318121503040FC0131832083CE01875347
:1039F0009F4FFC0180819181009789F62FC08E0135
:103A000007531F4FCE018B539F4FFC016081718183
:103A1000828193810E94BD34DC01CB01F801918346
:103A20008083CE0183539F4F9E0127533F4FF9015F
:103A300020813181FC0131832083CE0183539F4F4C
:103A4000FC01808191818C01C8010197F1F78C0103
:103A5000CE0183539F4FFC01118300830E94E60F28
:103A6000BDC18B819C818430910509F0B7C18091E3
:103A70008B0490918C04019790938C0480938B0419
:103A800085E090E09C838B839E0121533F4F80E033
:103A900090E0AAEFB3E4F90180839183A283B3831A
:103AA0008E010D521F4FCE0181539F4FFC0160814B
:103AB00071818281938126E636E646E655E40E94CE
:103AC0009F35DC01CB01F80180839183A283B3830E
:103AD000CE018D529F4F11E0FC0160817181828186
:103AE000938120E030E040E85FE30E945134882376
:103AF0000CF010E0112349F0CE0189529F4F21E0D4
:103B000030E0FC013183208374C0CE018D529F4F81
:103B100011E0FC01608171818281938120E03FEF9F
:103B20004FE757E40E949B3518160CF010E0112364
:103B300009F44DC0CE0181539F4FFC01608171811A
:103B40008281938120E030E040E251E40E949F3581
:103B5000DC01CB018E0109521F4FBC01CD010E9437
:103B6000BD34DC01CB01F8019183808327C0CE01F5
:103B700087529F4F20E731E0FC0131832083CE0143
:103B800087529F4FFC01808191818C01C801019770
:103B9000F1F78C01CE0187529F4FFC011183008306
:103BA000CE0189529F4F9E0129523F4FF90120813A
:103BB000318121503040FC0131832083CE01895274
:103BC0009F4FFC0180819181009789F62FC08E0163
:103BD00009521F4FCE018D529F4FFC0160817181B0
:103BE000828193810E94BD34DC01CB01F801918375
:103BF0008083CE0185529F4F9E0129523F4FF9018C
:103C000020813181FC0131832083CE0185529F4F79
:103C1000FC01808191818C01C8010197F1F78C0131
:103C2000CE0185529F4FFC011183008384EB90E00D
:103C30000E94CF0E9E0123523F4F80E090E0A8ECFF
:103C4000B2E4F90180839183A283B3838E010F5183
:103C50001F4FCE0183529F4FFC0160817181828191
:103C6000938126E636E646E655E40E949F35DC0160
:103C7000CB01F80180839183A283B383CE018F515E
:103C80009F4F11E0FC01608171818281938120E06E
:103C900030E040E85FE30E94513488230CF010E0EC
:103CA000112349F0CE018B519F4F21E030E0FC0100
:103CB0003183208374C0CE018F519F4F11E0FC01EE
:103CC000608171818281938120E03FEF4FE757E46B
:103CD0000E949B3518160CF010E0112309F44DC01A
:103CE000CE0183529F4FFC0160817181828193815B
:103CF00020E030E040E251E40E949F35DC01CB013E
:103D00008E010B511F4FBC01CD010E94BD34DC015F
:103D1000CB01F8019183808327C0CE0189519F4F49
:103D200020E731E0FC0131832083CE0189519F4F90
:103D3000FC01808191818C01C8010197F1F78C0110
:103D4000CE0189519F4FFC0111830083CE018B511D
:103D50009F4F9E012B513F4FF9012081318121500E
:103D60003040FC0131832083CE018B519F4FFC01F9
:103D700080819181009789F62FC08E010B511F4FD2
:103D8000CE018F519F4FFC016081718182819381AF
:103D90000E94BD34DC01CB01F80191838083CE0108
:103DA00087519F4F9E012B513F4FF9012081318157
:103DB000FC0131832083CE0187519F4FFC0180811C
:103DC00091818C01C8010197F1F78C01CE018751D7
:103DD0009F4FFC01118300830E94E60FCE018156A4
:103DE0009B4FFC01208131818091890490918A044C
:103DF000821793070CF021C68B819C81843091053A
:103E000009F0B8C18091890490918A040196909339
:103E10008A048093890486E090E09C838B839E01D2
:103E200025513F4F80E090E0AAEFB3E4F901808391
:103E30009183A283B3838E0101511F4FCE0185511F
:103E40009F4FFC01608171818281938126E636E675
:103E500046E655E40E949F35DC01CB01F8018083E2
:103E60009183A283B383CE0181519F4F11E0FC0166
:103E7000608171818281938120E030E040E85FE3DE
:103E80000E94513488230CF010E0112349F0CE0138
:103E90008D509F4F21E030E0FC013183208374C0BE
:103EA000CE0181519F4F11E0FC01608171818281BF
:103EB000938120E03FEF4FE757E40E949B351816AF
:103EC0000CF010E0112309F44DC0CE0185519F4F35
:103ED000FC01608171818281938120E030E040E2C9
:103EE00051E40E949F35DC01CB018E010D501F4F24
:103EF000BC01CD010E94BD34DC01CB01F8019183EE
:103F0000808327C0CE018B509F4F20E731E0FC011A
:103F100031832083CE018B509F4FFC0180819181A2
:103F20008C01C8010197F1F78C01CE018B509F4F96
:103F3000FC0111830083CE018D509F4F9E012D50B7
:103F40003F4FF9012081318121503040FC01318304
:103F50002083CE018D509F4FFC018081918100977D
:103F600089F62FC08E010D501F4FCE0181519F4FFA
:103F7000FC0160817181828193810E94BD34DC01EA
:103F8000CB01F80191838083CE0189509F4F9E0120
:103F90002D503F4FF90120813181FC013183208375
:103FA000CE0189509F4FFC01808191818C01C80115
:103FB0000197F1F78C01CE0189509F4FFC011183CD
:103FC000008385E590E00E94CF0E9E0127503F4F71
:103FD00080E090E0A8ECB2E4F90180839183A283B1
:103FE000B3838E0103501F4FCE0187509F4FFC01BA
:103FF000608171818281938126E636E646E655E44A
:104000000E949F35DC01CB01F80180839183A2835C
:10401000B383CE0183509F4F11E0FC016081718119
:104020008281938120E030E040E85FE30E945134D8
:1040300088230CF010E0112349F0CE018F5F9E4FD2
:1040400021E030E0FC013183208374C0CE01835035
:104050009F4F11E0FC01608171818281938120E09A
:104060003FEF4FE757E40E949B3518160CF010E025
:10407000112309F44DC0CE0187509F4FFC01608190
:1040800071818281938120E030E040E251E40E941E
:104090009F35DC01CB018E010F5F1E4FBC01CD01AE
:1040A0000E94BD34DC01CB01F8019183808327C0DD
:1040B000CE018D5F9E4F20E731E0FC0131832083EC
:1040C000CE018D5F9E4FFC01808191818C01C801E2
:1040D0000197F1F78C01CE018D5F9E4FFC0111839A
:1040E0000083CE018F5F9E4F9E012F5F3E4FF901EF
:1040F0002081318121503040FC0131832083CE0169
:104100008F5F9E4FFC0180819181009789F62FC0BF
:104110008E010F5F1E4FCE0183509F4FFC016081C7
:104120007181828193810E94BD34DC01CB01F80151
:1041300091838083CE018B5F9E4F9E012F5F3E4F08
:10414000F90120813181FC0131832083CE018B5F15
:104150009E4FFC01808191818C01C8010197F1F78C
:104160008C01CE018B5F9E4FFC01118300830E9466
:10417000E60F63C48B819C818630910509F0E2C013
:104180008091890490918A04019690938A04809387
:10419000890486E090E09C838B839E01295F3E4FDB
:1041A00080E090E0A8ECB2E4F90180839183A283DF
:1041B000B3838E01055F1E4FCE01895F9E4FFC01C8
:1041C000608171818281938126E636E646E655E478
:1041D0000E949F35DC01CB01F80180839183A2838B
:1041E000B383CE01855F9E4F11E0FC016081718138
:1041F0008281938120E030E040E85FE30E94513407
:1042000088230CF010E0112349F0CE01815F9E4F0E
:1042100021E030E0FC013183208374C0CE01855F52
:104220009E4F11E0FC01608171818281938120E0C9
:104230003FEF4FE757E40E949B3518160CF010E053
:10424000112309F44DC0CE01895F9E4FFC016081AE
:1042500071818281938120E030E040E251E40E944C
:104260009F35DC01CB018E01015F1E4FBC01CD01EA
:104270000E94BD34DC01CB01F8019183808327C00B
:10428000CE018F5E9E4F20E731E0FC013183208319
:10429000CE018F5E9E4FFC01808191818C01C8010F
:1042A0000197F1F78C01CE018F5E9E4FFC011183C7
:1042B0000083CE01815F9E4F9E01215F3E4FF90139
:1042C0002081318121503040FC0131832083CE0197
:1042D000815F9E4FFC0180819181009789F62FC0FC
:1042E0008E01015F1E4FCE01855F9E4FFC016081F4
:1042F0007181828193810E94BD34DC01CB01F80180
:1043000091838083CE018D5E9E4F9E01215F3E4F43
:10431000F90120813181FC0131832083CE018D5E42
:104320009E4FFC01808191818C01C8010197F1F7BA
:104330008C01CE018D5E9E4FFC01118300830E9493
:10434000E60F7BC38B819C818530910509F0B8C154
:104350008091890490918A04019690938A048093B5
:10436000890486E090E09C838B839E012B5E3E4F08
:1043700080E090E0AAEFB3E4F90180839183A28307
:10438000B3838E01075E1E4FCE018B5E9E4FFC01F4
:10439000608171818281938126E636E646E655E4A6
:1043A0000E949F35DC01CB01F80180839183A283B9
:1043B000B383CE01875E9E4F11E0FC016081718165
:1043C0008281938120E030E040E85FE30E94513435
:1043D00088230CF010E0112349F0CE01835E9E4F3C
:1043E00021E030E0FC013183208374C0CE01875E80
:1043F0009E4F11E0FC01608171818281938120E0F8
:104400003FEF4FE757E40E949B3518160CF010E081
:10441000112309F44DC0CE018B5E9E4FFC016081DB
:1044200071818281938120E030E040E251E40E947A
:104430009F35DC01CB018E01035E1E4FBC01CD0117
:104440000E94BD34DC01CB01F8019183808327C039
:10445000CE01815E9E4F20E731E0FC013183208355
:10446000CE01815E9E4FFC01808191818C01C8014B
:104470000197F1F78C01CE01815E9E4FFC01118303
:104480000083CE01835E9E4F9E01235E3E4FF90165
:104490002081318121503040FC0131832083CE01C5
:1044A000835E9E4FFC0180819181009789F62FC029
:1044B0008E01035E1E4FCE01875E9E4FFC01608120
:1044C0007181828193810E94BD34DC01CB01F801AE
:1044D00091838083CE018F5D9E4F9E01235E3E4F70
:1044E000F90120813181FC0131832083CE018F5D70
:1044F0009E4FFC01808191818C01C8010197F1F7E9
:104500008C01CE018F5D9E4FFC011183008385E5F8
:1045100090E00E94BC0E9E012D5D3E4F80E090E039
:10452000A8ECB2E4F90180839183A283B3838E0166
:10453000095D1E4FCE018D5D9E4FFC016081718132
:104540008281938126E636E646E655E40E949F3551
:10455000DC01CB01F80180839183A283B383CE0178
:10456000895D9E4F11E0FC016081718182819381A0
:1045700020E030E040E85FE30E94513488230CF0F3
:1045800010E0112349F0CE01855D9E4F21E030E01F
:10459000FC013183208374C0CE01895D9E4F11E000
:1045A000FC01608171818281938120E03FEF4FE7C0
:1045B00057E40E949B3518160CF010E0112309F403
:1045C0004DC0CE018D5D9E4FFC0160817181828165
:1045D000938120E030E040E251E40E949F35DC010D
:1045E000CB018E01055D1E4FBC01CD010E94BD3483
:1045F000DC01CB01F8019183808327C0CE01835D6C
:104600009E4F20E731E0FC0131832083CE01835DA2
:104610009E4FFC01808191818C01C8010197F1F7C7
:104620008C01CE01835D9E4FFC0111830083CE017E
:10463000855D9E4F9E01255D3E4FF90120813181B0
:1046400021503040FC0131832083CE01855D9E4F97
:10465000FC0180819181009789F62FC08E01055D54
:104660001E4FCE01895D9E4FFC0160817181828168
:1046700093810E94BD34DC01CB01F80191838083DA
:10468000CE01815D9E4F9E01255D3E4FF901208147
:104690003181FC0131832083CE01815D9E4FFC017D
:1046A000808191818C01C8010197F1F78C01CE01C5
:1046B000815D9E4FFC01118300830E94E60FBDC106
:1046C0008B819C818730910509F0B7C18091890465
:1046D00090918A04019690938A048093890486E0DD
:1046E00090E09C838B839E012F5C3E4F80E090E0A6
:1046F000AAEFB3E4F90180839183A283B3838E018F
:104700000B5C1E4FCE018F5C9E4FFC01608171815E
:104710008281938126E636E646E655E40E949F357F
:10472000DC01CB01F80180839183A283B383CE01A6
:104730008B5C9E4F11E0FC016081718182819381CD
:1047400020E030E040E85FE30E94513488230CF021
:1047500010E0112349F0CE01875C9E4F21E030E04C
:10476000FC013183208374C0CE018B5C9E4F11E02D
:10477000FC01608171818281938120E03FEF4FE7EE
:1047800057E40E949B3518160CF010E0112309F431
:104790004DC0CE018F5C9E4FFC0160817181828192
:1047A000938120E030E040E251E40E949F35DC013B
:1047B000CB018E01075C1E4FBC01CD010E94BD34B0
:1047C000DC01CB01F8019183808327C0CE01855C99
:1047D0009E4F20E731E0FC0131832083CE01855CD0
:1047E0009E4FFC01808191818C01C8010197F1F7F6
:1047F0008C01CE01855C9E4FFC0111830083CE01AC
:10480000875C9E4F9E01275C3E4FF90120813181DC
:1048100021503040FC0131832083CE01875C9E4FC4
:10482000FC0180819181009789F62FC08E01075C81
:104830001E4FCE018B5C9E4FFC0160817181828195
:1048400093810E94BD34DC01CB01F8019183808308
:10485000CE01835C9E4F9E01275C3E4FF901208173
:104860003181FC0131832083CE01835C9E4FFC01AA
:10487000808191818C01C8010197F1F78C01CE01F3
:10488000835C9E4FFC011183008384EB90E00E94C7
:10489000CF0E9E01215C3E4F80E090E0A8ECB2E498
:1048A000F90180839183A283B3838E010D5B1E4F38
:1048B000CE01815C9E4FFC01608171818281938178
:1048C00026E636E646E655E40E949F35DC01CB013C
:1048D000F80180839183A283B383CE018D5B9E4FC9
:1048E00011E0FC01608171818281938120E030E0E0
:1048F00040E85FE30E94513488230CF010E011235C
:1049000049F0CE01895B9E4F21E030E0FC0131830C
:10491000208374C0CE018D5B9E4F11E0FC0160814D
:1049200071818281938120E03FEF4FE757E40E943D
:104930009B3518160CF010E0112309F44DC0CE0180
:10494000815C9E4FFC01608171818281938120E0B6
:1049500030E040E251E40E949F35DC01CB018E0142
:10496000095B1E4FBC01CD010E94BD34DC01CB01AF
:10497000F8019183808327C0CE01875B9E4F20E79B
:1049800031E0FC0131832083CE01875B9E4FFC0127
:10499000808191818C01C8010197F1F78C01CE01D2
:1049A000875B9E4FFC0111830083CE01895B9E4F84
:1049B0009E01295B3E4FF901208131812150304019
:1049C000FC0131832083CE01895B9E4FFC018081F5
:1049D0009181009789F62FC08E01095B1E4FCE0191
:1049E0008D5B9E4FFC0160817181828193810E9469
:1049F000BD34DC01CB01F80191838083CE01855B5E
:104A00009E4F9E01295B3E4FF90120813181FC01BF
:104A100031832083CE01855B9E4FFC018081918193
:104A20008C01C8010197F1F78C01CE01855B9E4F87
:104A3000FC01118300830E94E60FCE0181569B4F3B
:104A4000FC01208131818091890490918A0428178A
:104A500039070CF021C68B819C818430910509F0C7
:104A6000B8C18091890490918A04019790938A0437
:104A70008093890487E090E09C838B839E01235B75
:104A80003E4F80E090E0AAEFB3E4F9018083918388
:104A9000A283B3838E010F5A1E4FCE01835B9E4FBC
:104AA000FC01608171818281938126E636E646E6CB
:104AB00055E40E949F35DC01CB01F801808391838E
:104AC000A283B383CE018F5A9E4F11E0FC01608117
:104AD00071818281938120E030E040E85FE30E94B1
:104AE000513488230CF010E0112349F0CE018B5A89
:104AF0009E4F21E030E0FC013183208374C0CE0161
:104B00008F5A9E4F11E0FC016081718182819381F7
:104B100020E03FEF4FE757E40E949B3518160CF05A
:104B200010E0112309F44DC0CE01835B9E4FFC01C0
:104B3000608171818281938120E030E040E251E424
:104B40000E949F35DC01CB018E010B5A1E4FBC0128
:104B5000CD010E94BD34DC01CB01F801918380833B
:104B600027C0CE01895A9E4F20E731E0FC013183F6
:104B70002083CE01895A9E4FFC01808191818C0156
:104B8000C8010197F1F78C01CE01895A9E4FFC01B3
:104B900011830083CE018B5A9E4F9E012B5A3E4FAC
:104BA000F9012081318121503040FC013183208383
:104BB000CE018B5A9E4FFC0180819181009789F62E
:104BC0002FC08E010B5A1E4FCE018F5A9E4FFC01F3
:104BD00060817181828193810E94BD34DC01CB01AF
:104BE000F80191838083CE01875A9E4F9E012B5AF4
:104BF0003E4FF90120813181FC0131832083CE01B8
:104C0000875A9E4FFC01808191818C01C8010197D8
:104C1000F1F78C01CE01875A9E4FFC01118300836E
:104C200085E590E00E94BC0E9E01255A3E4F80E033
:104C300090E0A8ECB2E4F90180839183A283B3836E
:104C40008E01015A1E4FCE01855A9E4FFC01608194
:104C500071818281938126E636E646E655E40E941C
:104C60009F35DC01CB01F80180839183A283B3835C
:104C7000CE01815A9E4F11E0FC01608171818281D9
:104C8000938120E030E040E85FE30E9451348823C4
:104C90000CF010E0112349F0CE018D599E4F21E018
:104CA00030E0FC013183208374C0CE01815A9E4FD5
:104CB00011E0FC01608171818281938120E03FEFEE
:104CC0004FE757E40E949B3518160CF010E01123B3
:104CD00009F44DC0CE01855A9E4FFC01608171815F
:104CE0008281938120E030E040E251E40E949F35D0
:104CF000DC01CB018E010D591E4FBC01CD010E947C
:104D0000BD34DC01CB01F8019183808327C0CE0143
:104D10008B599E4F20E731E0FC0131832083CE0187
:104D20008B599E4FFC01808191818C01C8010197B4
:104D3000F1F78C01CE018B599E4FFC01118300834A
:104D4000CE018D599E4F9E012D593E4FF901208174
:104D5000318121503040FC0131832083CE018D59B7
:104D60009E4FFC0180819181009789F62FC08E01B2
:104D70000D591E4FCE01815A9E4FFC0160817181F9
:104D8000828193810E94BD34DC01CB01F8019183C3
:104D90008083CE0189599E4F9E012D593E4FF901C6
:104DA00020813181FC0131832083CE0189599E4FBE
:104DB000FC01808191818C01C8010197F1F78C0180
:104DC000CE0189599E4FFC01118300830E94E60F9A
:104DD00063C48B819C818730910509F0E2C080918A
:104DE000890490918A04019790938A04809389049E
:104DF00087E090E09C838B839E0127593E4F80E0A3
:104E000090E0A8ECB2E4F90180839183A283B3839C
:104E10008E0103591E4FCE0187599E4FFC016081C0
:104E200071818281938126E636E646E655E40E944A
:104E30009F35DC01CB01F80180839183A283B3838A
:104E4000CE0183599E4F11E0FC0160817181828106
:104E5000938120E030E040E85FE30E9451348823F2
:104E60000CF010E0112349F0CE018F589E4F21E045
:104E700030E0FC013183208374C0CE0183599E4F02
:104E800011E0FC01608171818281938120E03FEF1C
:104E90004FE757E40E949B3518160CF010E01123E1
:104EA00009F44DC0CE0187599E4FFC01608171818C
:104EB0008281938120E030E040E251E40E949F35FE
:104EC000DC01CB018E010F581E4FBC01CD010E94A9
:104ED000BD34DC01CB01F8019183808327C0CE0172
:104EE0008D589E4F20E731E0FC0131832083CE01B5
:104EF0008D589E4FFC01808191818C01C8010197E2
:104F0000F1F78C01CE018D589E4FFC011183008377
:104F1000CE018F589E4F9E012F583E4FF9012081A0
:104F2000318121503040FC0131832083CE018F58E4
:104F30009E4FFC0180819181009789F62FC08E01E0
:104F40000F581E4FCE0183599E4FFC016081718125
:104F5000828193810E94BD34DC01CB01F8019183F1
:104F60008083CE018B589E4F9E012F583E4FF901F2
:104F700020813181FC0131832083CE018B589E4FEB
:104F8000FC01808191818C01C8010197F1F78C01AE
:104F9000CE018B589E4FFC01118300830E94E60FC7
:104FA0007BC38B819C818530910509F0B8C18091CC
:104FB000890490918A04019790938A0480938904CC
:104FC00087E090E09C838B839E0129583E4F80E0D0
:104FD00090E0AAEFB3E4F90180839183A283B383C5
:104FE0008E0105581E4FCE0189589E4FFC016081ED
:104FF00071818281938126E636E646E655E40E9479
:105000009F35DC01CB01F80180839183A283B383B8
:10501000CE0185589E4F11E0FC0160817181828133
:10502000938120E030E040E85FE30E945134882320
:105030000CF010E0112349F0CE0181589E4F21E081
:1050400030E0FC013183208374C0CE0185589E4F2F
:1050500011E0FC01608171818281938120E03FEF4A
:105060004FE757E40E949B3518160CF010E011230F
:1050700009F44DC0CE0189589E4FFC0160817181B9
:105080008281938120E030E040E251E40E949F352C
:10509000DC01CB018E0101581E4FBC01CD010E94E5
:1050A000BD34DC01CB01F8019183808327C0CE01A0
:1050B0008F579E4F20E731E0FC0131832083CE01E2
:1050C0008F579E4FFC01808191818C01C80101970F
:1050D000F1F78C01CE018F579E4FFC0111830083A5
:1050E000CE0181589E4F9E0121583E4FF9012081EB
:1050F000318121503040FC0131832083CE01815821
:105100009E4FFC0180819181009789F62FC08E010E
:1051100001581E4FCE0185589E4FFC016081718160
:10512000828193810E94BD34DC01CB01F80191831F
:105130008083CE018D579E4F9E0121583E4FF9012D
:1051400020813181FC0131832083CE018D579E4F18
:10515000FC01808191818C01C8010197F1F78C01DC
:10516000CE018D579E4FFC011183008385E590E0B1
:105170000E94CF0E9E012B573E4F80E090E0A8EC9E
:10518000B2E4F90180839183A283B3838E01075730
:105190001E4FCE018B579E4FFC0160817181828131
:1051A000938126E636E646E655E40E949F35DC010B
:1051B000CB01F80180839183A283B383CE0187570B
:1051C0009E4F11E0FC01608171818281938120E01A
:1051D00030E040E85FE30E94513488230CF010E097
:1051E000112349F0CE0183579E4F21E030E0FC01AE
:1051F0003183208374C0CE0187579E4F11E0FC019C
:10520000608171818281938120E03FEF4FE757E415
:105210000E949B3518160CF010E0112309F44DC0C4
:10522000CE018B579E4FFC016081718182819381F9
:1052300020E030E040E251E40E949F35DC01CB01E8
:105240008E0103571E4FBC01CD010E94BD34DC010D
:10525000CB01F8019183808327C0CE0181579E4FF7
:1052600020E731E0FC0131832083CE0181579E4F3E
:10527000FC01808191818C01C8010197F1F78C01BB
:10528000CE0181579E4FFC0111830083CE018357CD
:105290009E4F9E0123573E4FF901208131812150BD
:1052A0003040FC0131832083CE0183579E4FFC01A7
:1052B00080819181009789F62FC08E0103571E4F80
:1052C000CE0187579E4FFC0160817181828193815D
:1052D0000E94BD34DC01CB01F80191838083CE01B3
:1052E0008F569E4F9E0123573E4FF90120813181F9
:1052F000FC0131832083CE018F569E4FFC018081BB
:1053000091818C01C8010197F1F78C01CE018F5674
:105310009E4FFC01118300830E94E60FBDC18B816B
:105320009C818630910509F0B7C1809189049091E4
:105330008A04019790938A048093890487E090E01F
:105340009C838B839E012D563E4F80E090E0AAEF18
:10535000B3E4F90180839183A283B3838E0109565C
:105360001E4FCE018D569E4FFC016081718182815E
:10537000938126E636E646E655E40E949F35DC0139
:10538000CB01F80180839183A283B383CE01895638
:105390009E4F11E0FC01608171818281938120E048
:1053A00030E040E85FE30E94513488230CF010E0C5
:1053B000112349F0CE0185569E4F21E030E0FC01DB
:1053C0003183208374C0CE0189569E4F11E0FC01C9
:1053D000608171818281938120E03FEF4FE757E444
:1053E0000E949B3518160CF010E0112309F44DC0F3
:1053F000CE018D569E4FFC01608171818281938127
:1054000020E030E040E251E40E949F35DC01CB0116
:105410008E0105561E4FBC01CD010E94BD34DC013A
:10542000CB01F8019183808327C0CE0183569E4F24
:1054300020E731E0FC0131832083CE0183569E4F6B
:10544000FC01808191818C01C8010197F1F78C01E9
:10545000CE0183569E4FFC0111830083CE018556F9
:105460009E4F9E0125563E4FF901208131812150EA
:105470003040FC0131832083CE0185569E4FFC01D4
:1054800080819181009789F62FC08E0105561E4FAD
:10549000CE0189569E4FFC0160817181828193818A
:1054A0000E94BD34DC01CB01F80191838083CE01E1
:1054B00081569E4F9E0125563E4FF9012081318134
:1054C000FC0131832083CE0181569E4FFC018081F7
:1054D00091818C01C8010197F1F78C01CE018156B1
:1054E0009E4FFC011183008384EB90E00E94CF0E5D
:1054F0009E012F553E4F80E090E0A8ECB2E4F90108
:1055000080839183A283B3838E010B551E4FCE01FE
:105510008F559E4FFC01608171818281938126E6C7
:1055200036E646E655E40E949F35DC01CB01F801E2
:1055300080839183A283B383CE018B559E4F11E06C
:10554000FC01608171818281938120E030E040E83C
:105550005FE30E94513488230CF010E0112349F0DE
:10556000CE0187559E4F21E030E0FC01318320833E
:1055700074C0CE018B559E4F11E0FC01608171819A
:105580008281938120E03FEF4FE757E40E949B35F3
:1055900018160CF010E0112309F44DC0CE018F5500
:1055A0009E4FFC01608171818281938120E030E017
:1055B00040E251E40E949F35DC01CB018E0107558A
:1055C0001E4FBC01CD010E94BD34DC01CB01F801AE
:1055D0009183808327C0CE0185559E4F20E731E01F
:1055E000FC0131832083CE0185559E4FFC018081D3
:1055F00091818C01C8010197F1F78C01CE0185558D
:105600009E4FFC0111830083CE0187559E4F9E0162
:1056100027553E4FF9012081318121503040FC0156
:1056200031832083CE0187559E4FFC01808191817B
:10563000009789F62FC08E0107551E4FCE018B555E
:105640009E4FFC0160817181828193810E94BD34F3
:10565000DC01CB01F80191838083CE0183559E4FFD
:105660009E0127553E4FF90120813181FC01318394
:105670002083CE0183559E4FFC01808191818C0156
:10568000C8010197F1F78C01CE0183559E4FFC01B3
:10569000118300830E94E60FCE0181569B4FFC01CF
:1056A000208131818091890490918A0428173907DB
:1056B00011F00C941E13CE0181569B4FFC012281E8
:1056C000338180918B0490918C042817390711F055
:1056D0000C941E130E94F30C9E0121553E4F80E056
:1056E00090E0A8ECB2E4F90180839183A283B383B4
:1056F0008E010D541E4FCE0181559E4FFC016081DD
:1057000071818281938126E636E646E655E40E9461
:105710009F35DC01CB01F80180839183A283B383A1
:10572000CE018D549E4F11E0FC0160817181828118
:10573000938120E030E040E85FE30E945134882309
:105740000CF010E0112349F0CE0189549E4F21E066
:1057500030E0FC013183208374C0CE018D549E4F14
:1057600011E0FC01608171818281938120E03FEF33
:105770004FE757E40E949B3518160CF010E01123F8
:1057800009F44DC0CE0181559E4FFC0160817181AD
:105790008281938120E030E040E251E40E949F3515
:1057A000DC01CB018E0109541E4FBC01CD010E94CA
:1057B000BD34DC01CB01F8019183808327C0CE0189
:1057C00087549E4F20E731E0FC0131832083CE01D6
:1057D00087549E4FFC01808191818C01C801019703
:1057E000F1F78C01CE0187549E4FFC011183008399
:1057F000CE0189549E4F9E0129543E4FF9012081CC
:10580000318121503040FC0131832083CE01895405
:105810009E4FFC0180819181009789F62FC08E01F7
:1058200009541E4FCE018D549E4FFC016081718141
:10583000828193810E94BD34DC01CB01F801918308
:105840008083CE0185549E4F9E0129543E4FF9011D
:1058500020813181FC0131832083CE0185549E4F0C
:10586000FC01808191818C01C8010197F1F78C01C5
:10587000CE0185549E4FFC01118300830E940A0DC6
:105880009E0123543E4F80E090E0A8ECB2E4F90181
:1058900080839183A283B3838E010F531E4FCE0169
:1058A00083549E4FFC01608171818281938126E641
:1058B00036E646E655E40E949F35DC01CB01F8014F
:1058C00080839183A283B383CE018F539E4F11E0D7
:1058D000FC01608171818281938120E030E040E8A9
:1058E0005FE30E94513488230CF010E0112349F04B
:1058F000CE018B539E4F21E030E0FC0131832083A9
:1059000074C0CE018F539E4F11E0FC016081718104
:105910008281938120E03FEF4FE757E40E949B355F
:1059200018160CF010E0112309F44DC0CE01835479
:105930009E4FFC01608171818281938120E030E083
:1059400040E251E40E949F35DC01CB018E010B53F4
:105950001E4FBC01CD010E94BD34DC01CB01F8011A
:105960009183808327C0CE0189539E4F20E731E089
:10597000FC0131832083CE0189539E4FFC0180813D
:1059800091818C01C8010197F1F78C01CE018953F7
:105990009E4FFC0111830083CE018B539E4F9E01CD
:1059A0002B533E4FF9012081318121503040FC01C1
:1059B00031832083CE018B539E4FFC0180819181E6
:1059C000009789F630C08E010B531E4FCE018F53C6
:1059D0009E4FFC0160817181828193810E94BD3460
:1059E000DC01CB01F80191838083CE0187539E4F68
:1059F0009E012B533E4FF90120813181FC013183FF
:105A00002083CE0187539E4FFC01808191818C01C0
:105A1000C8010197F1F78C01CE0187539E4FFC011D
:105A20001183008300C000008091890490918A0452
:105A3000009709F0EBC280918B0490918C04009741
:105A400009F0E4C289819A8181709070882309F4F9
:105A5000DDC28B819C818630910509F0E5C085E52A
:105A600090E00E94CF0E9E0125533E4F80E090E0D3
:105A7000A8ECB2E4F90180839183A283B3838E0101
:105A800001531E4FCE0185539E4FFC0160817181F1
:105A90008281938126E636E646E655E40E949F35EC
:105AA000DC01CB01F80180839183A283B383CE0113
:105AB00081539E4F11E0FC0160817181828193814D
:105AC00020E030E040E85FE30E94513488230CF08E
:105AD00010E0112349F0CE018D529E4F21E030E0BD
